{
  "abi": [
    {
      "inputs": [
        {
          "internalType": "contract IPoolManager",
          "name": "aPoolManager",
          "type": "address"
        },
        {
          "internalType": "address",
          "name": "aOwner",
          "type": "address"
        }
      ],
      "stateMutability": "nonpayable",
      "type": "constructor"
    },
    {
      "inputs": [],
      "name": "ERC20TransferFailed",
      "type": "error"
    },
    {
      "inputs": [],
      "name": "InvalidNonce",
      "type": "error"
    },
    {
      "inputs": [],
      "name": "InvalidSignature",
      "type": "error"
    },
    {
      "inputs": [],
      "name": "LimitPriceBreached",
      "type": "error"
    },
    {
      "inputs": [],
      "name": "NativeTransferFailed",
      "type": "error"
    },
    {
      "inputs": [],
      "name": "NewOwnerIsZeroAddress",
      "type": "error"
    },
    {
      "inputs": [],
      "name": "NoHandoverRequest",
      "type": "error"
    },
    {
      "inputs": [],
      "name": "OrderExpired",
      "type": "error"
    },
    {
      "inputs": [],
      "name": "PartialFillNotAllowed",
      "type": "error"
    },
    {
      "inputs": [],
      "name": "Unauthorized",
      "type": "error"
    },
    {
      "inputs": [],
      "name": "UnauthorizedSwapper",
      "type": "error"
    },
    {
      "anonymous": false,
      "inputs": [
        {
          "indexed": true,
          "internalType": "address",
          "name": "pendingOwner",
          "type": "address"
        }
      ],
      "name": "OwnershipHandoverCanceled",
      "type": "event"
    },
    {
      "anonymous": false,
      "inputs": [
        {
          "indexed": true,
          "internalType": "address",
          "name": "pendingOwner",
          "type": "address"
        }
      ],
      "name": "OwnershipHandoverRequested",
      "type": "event"
    },
    {
      "anonymous": false,
      "inputs": [
        {
          "indexed": true,
          "internalType": "address",
          "name": "oldOwner",
          "type": "address"
        },
        {
          "indexed": true,
          "internalType": "address",
          "name": "newOwner",
          "type": "address"
        }
      ],
      "name": "OwnershipTransferred",
      "type": "event"
    },
    {
      "inputs": [
        {
          "internalType": "address",
          "name": "aSender",
          "type": "address"
        },
        {
          "components": [
            {
              "internalType": "Currency",
              "name": "currency0",
              "type": "address"
            },
            {
              "internalType": "Currency",
              "name": "currency1",
              "type": "address"
            },
            {
              "internalType": "uint24",
              "name": "fee",
              "type": "uint24"
            },
            {
              "internalType": "int24",
              "name": "tickSpacing",
              "type": "int24"
            },
            {
              "internalType": "contract IHooks",
              "name": "hooks",
              "type": "address"
            }
          ],
          "internalType": "struct PoolKey",
          "name": "",
          "type": "tuple"
        },
        {
          "components": [
            {
              "internalType": "bool",
              "name": "zeroForOne",
              "type": "bool"
            },
            {
              "internalType": "int256",
              "name": "amountSpecified",
              "type": "int256"
            },
            {
              "internalType": "uint160",
              "name": "sqrtPriceLimitX96",
              "type": "uint160"
            }
          ],
          "internalType": "struct IPoolManager.SwapParams",
          "name": "",
          "type": "tuple"
        },
        {
          "internalType": "bytes",
          "name": "",
          "type": "bytes"
        }
      ],
      "name": "beforeSwap",
      "outputs": [
        {
          "internalType": "bytes4",
          "name": "rSelector",
          "type": "bytes4"
        }
      ],
      "stateMutability": "view",
      "type": "function"
    },
    {
      "inputs": [],
      "name": "cancelOwnershipHandover",
      "outputs": [],
      "stateMutability": "payable",
      "type": "function"
    },
    {
      "inputs": [
        {
          "internalType": "Currency",
          "name": "aCurrency",
          "type": "address"
        },
        {
          "internalType": "address",
          "name": "aRecipient",
          "type": "address"
        }
      ],
      "name": "claimFees",
      "outputs": [],
      "stateMutability": "nonpayable",
      "type": "function"
    },
    {
      "inputs": [
        {
          "internalType": "address",
          "name": "pendingOwner",
          "type": "address"
        }
      ],
      "name": "completeOwnershipHandover",
      "outputs": [],
      "stateMutability": "payable",
      "type": "function"
    },
    {
      "inputs": [],
      "name": "eip712Domain",
      "outputs": [
        {
          "internalType": "bytes1",
          "name": "fields",
          "type": "bytes1"
        },
        {
          "internalType": "string",
          "name": "name",
          "type": "string"
        },
        {
          "internalType": "string",
          "name": "version",
          "type": "string"
        },
        {
          "internalType": "uint256",
          "name": "chainId",
          "type": "uint256"
        },
        {
          "internalType": "address",
          "name": "verifyingContract",
          "type": "address"
        },
        {
          "internalType": "bytes32",
          "name": "salt",
          "type": "bytes32"
        },
        {
          "internalType": "uint256[]",
          "name": "extensions",
          "type": "uint256[]"
        }
      ],
      "stateMutability": "view",
      "type": "function"
    },
    {
      "inputs": [
        {
          "internalType": "uint256",
          "name": "wordPos",
          "type": "uint256"
        },
        {
          "internalType": "uint256",
          "name": "mask",
          "type": "uint256"
        }
      ],
      "name": "invalidateUnorderedNonces",
      "outputs": [],
      "stateMutability": "nonpayable",
      "type": "function"
    },
    {
      "inputs": [
        {
          "internalType": "bytes",
          "name": "aBundle",
          "type": "bytes"
        }
      ],
      "name": "lockAcquired",
      "outputs": [
        {
          "internalType": "bytes",
          "name": "",
          "type": "bytes"
        }
      ],
      "stateMutability": "nonpayable",
      "type": "function"
    },
    {
      "inputs": [
        {
          "internalType": "address",
          "name": "",
          "type": "address"
        },
        {
          "internalType": "uint256",
          "name": "",
          "type": "uint256"
        }
      ],
      "name": "nonceBitmap",
      "outputs": [
        {
          "internalType": "uint256",
          "name": "",
          "type": "uint256"
        }
      ],
      "stateMutability": "view",
      "type": "function"
    },
    {
      "inputs": [],
      "name": "owner",
      "outputs": [
        {
          "internalType": "address",
          "name": "result",
          "type": "address"
        }
      ],
      "stateMutability": "view",
      "type": "function"
    },
    {
      "inputs": [
        {
          "internalType": "address",
          "name": "pendingOwner",
          "type": "address"
        }
      ],
      "name": "ownershipHandoverExpiresAt",
      "outputs": [
        {
          "internalType": "uint256",
          "name": "result",
          "type": "uint256"
        }
      ],
      "stateMutability": "view",
      "type": "function"
    },
    {
      "inputs": [],
      "name": "poolManager",
      "outputs": [
        {
          "internalType": "contract IPoolManager",
          "name": "",
          "type": "address"
        }
      ],
      "stateMutability": "view",
      "type": "function"
    },
    {
      "inputs": [
        {
          "components": [
            {
              "components": [
                {
                  "components": [
                    {
                      "internalType": "uint256",
                      "name": "nonce",
                      "type": "uint256"
                    },
                    {
                      "internalType": "enum OrderType",
                      "name": "orderType",
                      "type": "uint8"
                    },
                    {
                      "internalType": "Currency",
                      "name": "currencyIn",
                      "type": "address"
                    },
                    {
                      "internalType": "Currency",
                      "name": "currencyOut",
                      "type": "address"
                    },
                    {
                      "internalType": "uint128",
                      "name": "amountIn",
                      "type": "uint128"
                    },
                    {
                      "internalType": "uint128",
                      "name": "amountOutMin",
                      "type": "uint128"
                    },
                    {
                      "internalType": "uint256",
                      "name": "deadline",
                      "type": "uint256"
                    },
                    {
                      "internalType": "bytes",
                      "name": "preHook",
                      "type": "bytes"
                    },
                    {
                      "internalType": "bytes",
                      "name": "postHook",
                      "type": "bytes"
                    }
                  ],
                  "internalType": "struct Order",
                  "name": "order",
                  "type": "tuple"
                },
                {
                  "internalType": "bytes",
                  "name": "signature",
                  "type": "bytes"
                },
                {
                  "internalType": "uint256",
                  "name": "amountInActual",
                  "type": "uint256"
                },
                {
                  "internalType": "uint256",
                  "name": "amountOutActual",
                  "type": "uint256"
                }
              ],
              "internalType": "struct Angstrom.ExecutedOrder[]",
              "name": "orders",
              "type": "tuple[]"
            },
            {
              "internalType": "bytes",
              "name": "uniswapData",
              "type": "bytes"
            }
          ],
          "internalType": "struct Angstrom.Bundle",
          "name": "aBundle",
          "type": "tuple"
        }
      ],
      "name": "process",
      "outputs": [],
      "stateMutability": "nonpayable",
      "type": "function"
    },
    {
      "inputs": [],
      "name": "renounceOwnership",
      "outputs": [],
      "stateMutability": "payable",
      "type": "function"
    },
    {
      "inputs": [],
      "name": "requestOwnershipHandover",
      "outputs": [],
      "stateMutability": "payable",
      "type": "function"
    },
    {
      "inputs": [
        {
          "internalType": "address",
          "name": "newOwner",
          "type": "address"
        }
      ],
      "name": "transferOwnership",
      "outputs": [],
      "stateMutability": "payable",
      "type": "function"
    }
  ],
  "bytecode": {
    "object": "0x6101406040523480156200001257600080fd5b50604051620024e9380380620024e9833981016040819052620000359162000157565b306080524660a0526000806200007e6040805180820182526008815267416e677374726f6d60c01b602080830191909152825180840190935260018352603160f81b9083015291565b815160209283012081519183019190912060c082905260e0819052604080517f8b73c3c69bb8fe3d512ecc4cf759cc79239f7b179b0ffacaa9a75d522b39400f8152938401929092529082015246606082015230608082015260a090206101005250506001600160a01b03821661012052620000fa8162000102565b505062000196565b6001600160a01b0316638b78c6d8198190558060007f8be0079c531659141344cd1fd0a4f28419497f9722a3daafe3b4186f6b6457e08180a350565b6001600160a01b03811681146200015457600080fd5b50565b600080604083850312156200016b57600080fd5b825162000178816200013e565b60208401519092506200018b816200013e565b809150509250929050565b60805160a05160c05160e05161010051610120516122d962000210600039600081816102da0152818161078001528181610c4e01528181610d1401528181610daa01528181610e0e0152610ea8015260006116f8015260006117b20152600061178c0152600061173c0152600061171901526122d96000f3fe6080604052600436106100e85760003560e01c806384b0196e1161008a578063dc4c90d311610059578063dc4c90d3146102c8578063f04e283e146102fc578063f2fde38b1461030f578063fee81cf41461032257600080fd5b806384b0196e146101fe5780638da5cb5b14610226578063ab6291fe1461027b578063d0bd88b5146102a857600080fd5b80634fe02b44116100c65780634fe02b441461015557806354d1f13d1461019d578063575e24b4146101a5578063715018a6146101f657600080fd5b806325692962146100ed5780632dbfa735146100f75780633ff9dcb114610117575b600080fd5b6100f5610355565b005b34801561010357600080fd5b506100f5610112366004611883565b6103a5565b34801561012357600080fd5b506100f56101323660046118bc565b336000908152602081815260408083209483529390529190912080549091179055565b34801561016157600080fd5b5061018a6101703660046118de565b600060208181529281526040808220909352908152205481565b6040519081526020015b60405180910390f35b6100f56103f2565b3480156101b157600080fd5b506101c56101c0366004611953565b61042e565b6040517fffffffff000000000000000000000000000000000000000000000000000000009091168152602001610194565b6100f56104aa565b34801561020a57600080fd5b506102136104be565b6040516101949796959493929190611a8d565b34801561023257600080fd5b507fffffffffffffffffffffffffffffffffffffffffffffffffffffffff74873927545b60405173ffffffffffffffffffffffffffffffffffffffff9091168152602001610194565b34801561028757600080fd5b5061029b610296366004611b4c565b610567565b6040516101949190611b8e565b3480156102b457600080fd5b506100f56102c3366004611ba1565b61067d565b3480156102d457600080fd5b506102567f000000000000000000000000000000000000000000000000000000000000000081565b6100f561030a366004611bdc565b6108ae565b6100f561031d366004611bdc565b6108ee565b34801561032e57600080fd5b5061018a61033d366004611bdc565b63389a75e1600c908152600091909152602090205490565b60006202a30067ffffffffffffffff164201905063389a75e1600c5233600052806020600c2055337fdbf36a107da19e49527a7176a1babf963b4b0ff8cde35ee35d6cd8f1f9ac7e1d600080a250565b6103ad610915565b6103ee816103d08473ffffffffffffffffffffffffffffffffffffffff1661094b565b73ffffffffffffffffffffffffffffffffffffffff85169190610a03565b5050565b63389a75e1600c523360005260006020600c2055337ffa7b8eab7da67f412cc9575ed43464468f9bfbae89d1675917346ca6d8fe3c92600080a2565b600073ffffffffffffffffffffffffffffffffffffffff8616301461047f576040517f4fe341e300000000000000000000000000000000000000000000000000000000815260040160405180910390fd5b507f575e24b40000000000000000000000000000000000000000000000000000000095945050505050565b6104b2610915565b6104bc6000610afb565b565b7f0f000000000000000000000000000000000000000000000000000000000000006060806000808083610555604080518082018252600881527f416e677374726f6d0000000000000000000000000000000000000000000000006020808301919091528251808401909352600183527f31000000000000000000000000000000000000000000000000000000000000009083015291565b97989097965046955030945091925090565b60606020830160005b61057a8280611bf9565b90508110156105bb576105ab6105908380611bf9565b838181106105a0576105a0611c60565b905060e00201610b61565b6105b481611cbe565b9050610570565b5060005b6105cc6040830183611bf9565b9050811015610610576106006105e56040840184611bf9565b838181106105f5576105f5611c60565b905060e00201610cca565b61060981611cbe565b90506105bf565b5060005b6106216020830183611cf6565b90508110156106655761065561063a6020840184611cf6565b8381811061064a5761064a611c60565b905060400201610d98565b61065e81611cbe565b9050610614565b50506040805160208101909152600081529392505050565b610685610915565b60006106918280611d5e565b905067ffffffffffffffff8111156106ab576106ab611dc6565b6040519080825280602002602001820160405280156106d4578160200160208202803683370190505b50905060005b6106e48380611d5e565b9050811015610768576107216106fa8480611d5e565b8381811061070a5761070a611c60565b905060200281019061071c9190611df5565b610f77565b82828151811061073357610733611c60565b73ffffffffffffffffffffffffffffffffffffffff9092166020928302919091019091015261076181611cbe565b90506106da565b5073ffffffffffffffffffffffffffffffffffffffff7f00000000000000000000000000000000000000000000000000000000000000001663815483196107b26020850185611e33565b6040518363ffffffff1660e01b81526004016107cf929190611ee1565b6000604051808303816000875af11580156107ee573d6000803e3d6000fd5b505050506040513d6000823e601f3d9081017fffffffffffffffffffffffffffffffffffffffffffffffffffffffffffffffe01682016040526108349190810190611ef5565b5060005b6108428380611d5e565b90508110156108a9576108996108588480611d5e565b8381811061086857610868611c60565b905060200281019061087a9190611df5565b83838151811061088c5761088c611c60565b60200260200101516111ec565b6108a281611cbe565b9050610838565b505050565b6108b6610915565b63389a75e1600c52806000526020600c2080544211156108de57636f5e88186000526004601cfd5b600090556108eb81610afb565b50565b6108f6610915565b8060601b61090c57637448fbae6000526004601cfd5b6108eb81610afb565b7fffffffffffffffffffffffffffffffffffffffffffffffffffffffff748739275433146104bc576382b429006000526004601cfd5b600073ffffffffffffffffffffffffffffffffffffffff821661096f575047919050565b6040517f70a0823100000000000000000000000000000000000000000000000000000000815230600482015273ffffffffffffffffffffffffffffffffffffffff8316906370a0823190602401602060405180830381865afa1580156109d9573d6000803e3d6000fd5b505050506040513d601f19601f820116820180604052508101906109fd9190611fb5565b92915050565b600073ffffffffffffffffffffffffffffffffffffffff8416610a685760008060008085875af1905080610a63576040517ff4b3b1bc00000000000000000000000000000000000000000000000000000000815260040160405180910390fd5b610af5565b6040517fa9059cbb000000000000000000000000000000000000000000000000000000006000528360045282602452602060006044600080895af13d15601f3d1160016000511416171691506000606052806040525080610af5576040517ff27f64e400000000000000000000000000000000000000000000000000000000815260040160405180910390fd5b50505050565b7fffffffffffffffffffffffffffffffffffffffffffffffffffffffff74873927805473ffffffffffffffffffffffffffffffffffffffff9092169182907f8be0079c531659141344cd1fd0a4f28419497f9722a3daafe3b4186f6b6457e0600080a355565b6000610ba1610b7660c0840160a08501611bdc565b610b836020850185611bdc565b73ffffffffffffffffffffffffffffffffffffffff90811691161490565b90506000604051806060016040528083151581526020018460c00135815260200183610beb57610be6600173fffd8963efd1fc6a506488495d951d5263988d26611fce565b610bfb565b610bfb6401000276a36001612002565b73ffffffffffffffffffffffffffffffffffffffff908116909152604080516020810182526000815290517ff3cd914c0000000000000000000000000000000000000000000000000000000081529293507f00000000000000000000000000000000000000000000000000000000000000009091169163f3cd914c91610c8791879186916004016120c3565b6020604051808303816000875af1158015610ca6573d6000803e3d6000fd5b505050506040513d601f19601f82011682018060405250810190610af59190611fb5565b604080516020810182526000815290517f234266d700000000000000000000000000000000000000000000000000000000815273ffffffffffffffffffffffffffffffffffffffff7f0000000000000000000000000000000000000000000000000000000000000000169163234266d791610d5591859160a08301359160c084013591600401612122565b6020604051808303816000875af1158015610d74573d6000803e3d6000fd5b505050506040513d601f19601f820116820180604052508101906103ee9190611fb5565b600081602001351315610e9157610df77f000000000000000000000000000000000000000000000000000000000000000060208301803590610dda9085611bdc565b73ffffffffffffffffffffffffffffffffffffffff169190610a03565b73ffffffffffffffffffffffffffffffffffffffff7f000000000000000000000000000000000000000000000000000000000000000016636a256b29610e406020840184611bdc565b6040517fffffffff0000000000000000000000000000000000000000000000000000000060e084901b16815273ffffffffffffffffffffffffffffffffffffffff9091166004820152602401610d55565b73ffffffffffffffffffffffffffffffffffffffff7f000000000000000000000000000000000000000000000000000000000000000016630b0d9c09610eda6020840184611bdc565b30610ee8602086013561214f565b6040517fffffffff0000000000000000000000000000000000000000000000000000000060e086901b16815273ffffffffffffffffffffffffffffffffffffffff93841660048201529290911660248301526044820152606401600060405180830381600087803b158015610f5c57600080fd5b505af1158015610f70573d6000803e3d6000fd5b5050505050565b600036610f848380612187565b9050610fa4610f92826112aa565b610f9f6020860186611e33565b61131e565b91508060c00135421115610fe4576040517fc56873ba00000000000000000000000000000000000000000000000000000000815260040160405180910390fd5b610fef828235611350565b600261100160408301602084016121ea565b6004811115611012576110126121bb565b146110da5761102760a082016080830161220b565b6fffffffffffffffffffffffffffffffff1683604001351015611076576040517f8ef0017c00000000000000000000000000000000000000000000000000000000815260040160405180910390fd5b61108660c0820160a0830161220b565b6fffffffffffffffffffffffffffffffff16836060013510156110d5576040517faf72ad3600000000000000000000000000000000000000000000000000000000815260040160405180910390fd5b61117e565b60006111296110ef60a084016080850161220b565b6fffffffffffffffffffffffffffffffff1661111160c0850160a0860161220b565b6fffffffffffffffffffffffffffffffff16906113dc565b9050600061113f606086013560408701356113dc565b90508181101561117b576040517faf72ad3600000000000000000000000000000000000000000000000000000000815260040160405180910390fd5b50505b600061118d60e0830183611e33565b905011156111ab576111ab826111a660e0840184611e33565b61142b565b6111e6823085604001358460400160208101906111c89190611bdc565b73ffffffffffffffffffffffffffffffffffffffff169291906114b7565b50919050565b366111f78380612187565b9050611215828460600135836060016020810190610dda9190611bdc565b6000611225610100830183611e33565b905011156108a957600361123f60408301602084016121ea565b6004811115611250576112506121bb565b148061127c5750600461126960408301602084016121ea565b600481111561127a5761127a6121bb565b145b15611298576108a982611293610100840184611e33565b611514565b6108a9826111a6610100840184611e33565b6040516000907f3f4b54bfc6936d29286f6705effd76b5c9fa2d796c0eadd7858c72033648c3a8906101208401358061014086018337812061010085013585018035806020830185378320848452905061012086602085013761010083019190915261012082015261014090209392505050565b6000604082900361133b576113348484846115a6565b9050611349565b6113468484846115d1565b90505b9392505050565b73ffffffffffffffffffffffffffffffffffffffff8216600090815260208181526040808320600885901c808552925282208054600160ff861690811b91821892839055929390919081831690036113d4576040517f756688fe00000000000000000000000000000000000000000000000000000000815260040160405180910390fd5b505050505050565b60007812725dd1d243aba0e75fe645cc4873f9e65afe688c928e1f218311670de0b6b3a76400000215820261141957637c5f487d6000526004601cfd5b50670de0b6b3a7640000919091020490565b604080517fb61c52a5000000000000000000000000000000000000000000000000000000008082526004820186905260248201929092527fffffffffffffffffffffffffffffffffffffffffffffffffffffffffffffffec83016044820181905260148501606483013760008060508501836000883560601c5af1905080610f70573d6000803e3d6000fd5b60405181606052826040528360601b602c526f23b872dd000000000000000000000000600c52602060006064601c6000895af13d15600160005114171661150657637939f4246000526004601cfd5b600060605260405250505050565b604080517fb61c52a5000000000000000000000000000000000000000000000000000000008082526004820186905260248201929092527fffffffffffffffffffffffffffffffffffffffffffffffffffffffffffffffe083016044820181905260208501606483013760008060448501836000883560601c6bffffffffffffffffffffffff8a3516f1505050505050565b6000806115b2856116f4565b9050833560208501356115c683838361180f565b979650505050505050565b813560601c3660006115e6846014818861223d565b90925090507f1626ba7e0000000000000000000000000000000000000000000000000000000073ffffffffffffffffffffffffffffffffffffffff8416631626ba7e611631896116f4565b85856040518463ffffffff1660e01b815260040161165193929190612267565b602060405180830381865afa15801561166e573d6000803e3d6000fd5b505050506040513d601f19601f82011682018060405250810190611692919061228a565b7fffffffff0000000000000000000000000000000000000000000000000000000016146116eb576040517f8baa579f00000000000000000000000000000000000000000000000000000000815260040160405180910390fd5b50509392505050565b60007f00000000000000000000000000000000000000000000000000000000000000007f000000000000000000000000000000000000000000000000000000000000000030147f00000000000000000000000000000000000000000000000000000000000000004614166117e95750604080517f8b73c3c69bb8fe3d512ecc4cf759cc79239f7b179b0ffacaa9a75d522b39400f81527f000000000000000000000000000000000000000000000000000000000000000060208201527f00000000000000000000000000000000000000000000000000000000000000009181019190915246606082015230608082015260a090205b67190100000000000060005280601a5282603a52604260182091506000603a5250919050565b600060405184600052601b8360ff1c01602052836040528260011b60011c606052602060016080600060015afa5191503d61185257638baa579f6000526004601cfd5b60006060526040529392505050565b73ffffffffffffffffffffffffffffffffffffffff811681146108eb57600080fd5b6000806040838503121561189657600080fd5b82356118a181611861565b915060208301356118b181611861565b809150509250929050565b600080604083850312156118cf57600080fd5b50508035926020909101359150565b600080604083850312156118f157600080fd5b82356118fc81611861565b946020939093013593505050565b60008083601f84011261191c57600080fd5b50813567ffffffffffffffff81111561193457600080fd5b60208301915083602082850101111561194c57600080fd5b9250929050565b600080600080600085870361014081121561196d57600080fd5b863561197881611861565b955060a07fffffffffffffffffffffffffffffffffffffffffffffffffffffffffffffffe0820112156119aa57600080fd5b60208701945060607fffffffffffffffffffffffffffffffffffffffffffffffffffffffffffffff40820112156119e057600080fd5b5060c08601925061012086013567ffffffffffffffff811115611a0257600080fd5b611a0e8882890161190a565b969995985093965092949392505050565b60005b83811015611a3a578181015183820152602001611a22565b50506000910152565b60008151808452611a5b816020860160208601611a1f565b601f017fffffffffffffffffffffffffffffffffffffffffffffffffffffffffffffffe0169290920160200192915050565b7fff00000000000000000000000000000000000000000000000000000000000000881681526000602060e081840152611ac960e084018a611a43565b8381036040850152611adb818a611a43565b6060850189905273ffffffffffffffffffffffffffffffffffffffff8816608086015260a0850187905284810360c0860152855180825283870192509083019060005b81811015611b3a57835183529284019291840191600101611b1e565b50909c9b505050505050505050505050565b60008060208385031215611b5f57600080fd5b823567ffffffffffffffff811115611b7657600080fd5b611b828582860161190a565b90969095509350505050565b6020815260006113496020830184611a43565b600060208284031215611bb357600080fd5b813567ffffffffffffffff811115611bca57600080fd5b82016040818503121561134957600080fd5b600060208284031215611bee57600080fd5b813561134981611861565b60008083357fffffffffffffffffffffffffffffffffffffffffffffffffffffffffffffffe1843603018112611c2e57600080fd5b83018035915067ffffffffffffffff821115611c4957600080fd5b602001915060e08102360382131561194c57600080fd5b7f4e487b7100000000000000000000000000000000000000000000000000000000600052603260045260246000fd5b7f4e487b7100000000000000000000000000000000000000000000000000000000600052601160045260246000fd5b60007fffffffffffffffffffffffffffffffffffffffffffffffffffffffffffffffff8203611cef57611cef611c8f565b5060010190565b60008083357fffffffffffffffffffffffffffffffffffffffffffffffffffffffffffffffe1843603018112611d2b57600080fd5b83018035915067ffffffffffffffff821115611d4657600080fd5b6020019150600681901b360382131561194c57600080fd5b60008083357fffffffffffffffffffffffffffffffffffffffffffffffffffffffffffffffe1843603018112611d9357600080fd5b83018035915067ffffffffffffffff821115611dae57600080fd5b6020019150600581901b360382131561194c57600080fd5b7f4e487b7100000000000000000000000000000000000000000000000000000000600052604160045260246000fd5b600082357fffffffffffffffffffffffffffffffffffffffffffffffffffffffffffffff81833603018112611e2957600080fd5b9190910192915050565b60008083357fffffffffffffffffffffffffffffffffffffffffffffffffffffffffffffffe1843603018112611e6857600080fd5b83018035915067ffffffffffffffff821115611e8357600080fd5b60200191503681900382131561194c57600080fd5b8183528181602085013750600060208284010152600060207fffffffffffffffffffffffffffffffffffffffffffffffffffffffffffffffe0601f840116840101905092915050565b602081526000611346602083018486611e98565b600060208284031215611f0757600080fd5b815167ffffffffffffffff80821115611f1f57600080fd5b818401915084601f830112611f3357600080fd5b815181811115611f4557611f45611dc6565b604051601f82017fffffffffffffffffffffffffffffffffffffffffffffffffffffffffffffffe0908116603f01168101908382118183101715611f8b57611f8b611dc6565b81604052828152876020848701011115611fa457600080fd5b6115c6836020830160208801611a1f565b600060208284031215611fc757600080fd5b5051919050565b73ffffffffffffffffffffffffffffffffffffffff828116828216039080821115611ffb57611ffb611c8f565b5092915050565b73ffffffffffffffffffffffffffffffffffffffff818116838216019080821115611ffb57611ffb611c8f565b803561203a81611861565b73ffffffffffffffffffffffffffffffffffffffff908116835260208201359061206382611861565b908116602084015260408201359062ffffff821680831461208357600080fd5b604085015260608301359150600282900b8083146120a057600080fd5b6060850152608083013591506120b582611861565b808216608085015250505050565b60006101206120d2838761202f565b8451151560a0840152602085015160c084015273ffffffffffffffffffffffffffffffffffffffff60408601511660e08401528061010084015261211881840185611a43565b9695505050505050565b6000610100612131838861202f565b8560a08401528460c08401528060e08401526115c681840185611a43565b60007f8000000000000000000000000000000000000000000000000000000000000000820361218057612180611c8f565b5060000390565b600082357ffffffffffffffffffffffffffffffffffffffffffffffffffffffffffffffee1833603018112611e2957600080fd5b7f4e487b7100000000000000000000000000000000000000000000000000000000600052602160045260246000fd5b6000602082840312156121fc57600080fd5b81356005811061134957600080fd5b60006020828403121561221d57600080fd5b81356fffffffffffffffffffffffffffffffff8116811461134957600080fd5b6000808585111561224d57600080fd5b8386111561225a57600080fd5b5050820193919092039150565b838152604060208201526000612281604083018486611e98565b95945050505050565b60006020828403121561229c57600080fd5b81517fffffffff000000000000000000000000000000000000000000000000000000008116811461134957600080fdfea164736f6c6343000815000a",
    "linkReferences": {}
  },
  "methodIdentifiers": {
    "beforeSwap(address,(address,address,uint24,int24,address),(bool,int256,uint160),bytes)": "575e24b4",
    "cancelOwnershipHandover()": "54d1f13d",
    "claimFees(address,address)": "2dbfa735",
    "completeOwnershipHandover(address)": "f04e283e",
    "eip712Domain()": "84b0196e",
    "invalidateUnorderedNonces(uint256,uint256)": "3ff9dcb1",
    "lockAcquired(bytes)": "ab6291fe",
    "nonceBitmap(address,uint256)": "4fe02b44",
    "owner()": "8da5cb5b",
    "ownershipHandoverExpiresAt(address)": "fee81cf4",
    "poolManager()": "dc4c90d3",
    "process((((uint256,uint8,address,address,uint128,uint128,uint256,bytes,bytes),bytes,uint256,uint256)[],bytes))": "d0bd88b5",
    "renounceOwnership()": "715018a6",
    "requestOwnershipHandover()": "25692962",
    "transferOwnership(address)": "f2fde38b"
  },
  "id": 73
}