{
  "abi": [
    {
      "inputs": [
        {
          "internalType": "uint256",
          "name": "controllerGasLimit",
          "type": "uint256"
        }
      ],
      "stateMutability": "nonpayable",
      "type": "constructor"
    },
    {
      "inputs": [],
      "name": "CannotUpdateEmptyPosition",
      "type": "error"
    },
    {
      "inputs": [],
      "name": "CurrenciesInitializedOutOfOrder",
      "type": "error"
    },
    {
      "inputs": [],
      "name": "CurrencyNotSettled",
      "type": "error"
    },
    {
      "inputs": [],
      "name": "DelegateCallNotAllowed",
      "type": "error"
    },
    {
      "inputs": [
        {
          "internalType": "address",
          "name": "sender",
          "type": "address"
        },
        {
          "internalType": "uint256",
          "name": "balance",
          "type": "uint256"
        },
        {
          "internalType": "uint256",
          "name": "needed",
          "type": "uint256"
        },
        {
          "internalType": "uint256",
          "name": "tokenId",
          "type": "uint256"
        }
      ],
      "name": "ERC1155InsufficientBalance",
      "type": "error"
    },
    {
      "inputs": [
        {
          "internalType": "address",
          "name": "approver",
          "type": "address"
        }
      ],
      "name": "ERC1155InvalidApprover",
      "type": "error"
    },
    {
      "inputs": [
        {
          "internalType": "uint256",
          "name": "idsLength",
          "type": "uint256"
        },
        {
          "internalType": "uint256",
          "name": "valuesLength",
          "type": "uint256"
        }
      ],
      "name": "ERC1155InvalidArrayLength",
      "type": "error"
    },
    {
      "inputs": [
        {
          "internalType": "address",
          "name": "operator",
          "type": "address"
        }
      ],
      "name": "ERC1155InvalidOperator",
      "type": "error"
    },
    {
      "inputs": [
        {
          "internalType": "address",
          "name": "receiver",
          "type": "address"
        }
      ],
      "name": "ERC1155InvalidReceiver",
      "type": "error"
    },
    {
      "inputs": [
        {
          "internalType": "address",
          "name": "sender",
          "type": "address"
        }
      ],
      "name": "ERC1155InvalidSender",
      "type": "error"
    },
    {
      "inputs": [
        {
          "internalType": "address",
          "name": "operator",
          "type": "address"
        },
        {
          "internalType": "address",
          "name": "owner",
          "type": "address"
        }
      ],
      "name": "ERC1155MissingApprovalForAll",
      "type": "error"
    },
    {
      "inputs": [],
      "name": "ERC20TransferFailed",
      "type": "error"
    },
    {
      "inputs": [],
      "name": "FeeTooLarge",
      "type": "error"
    },
    {
      "inputs": [
        {
          "internalType": "address",
          "name": "hooks",
          "type": "address"
        }
      ],
      "name": "HookAddressNotValid",
      "type": "error"
    },
    {
      "inputs": [],
      "name": "InvalidCaller",
      "type": "error"
    },
    {
      "inputs": [],
      "name": "InvalidHookResponse",
      "type": "error"
    },
    {
      "inputs": [],
      "name": "InvalidSqrtRatio",
      "type": "error"
    },
    {
      "inputs": [],
      "name": "InvalidTick",
      "type": "error"
    },
    {
      "inputs": [
        {
          "internalType": "address",
          "name": "locker",
          "type": "address"
        }
      ],
      "name": "LockedBy",
      "type": "error"
    },
    {
      "inputs": [],
      "name": "MaxCurrenciesTouched",
      "type": "error"
    },
    {
      "inputs": [],
      "name": "NativeTransferFailed",
      "type": "error"
    },
    {
      "inputs": [],
      "name": "NoLiquidityToReceiveFees",
      "type": "error"
    },
    {
      "inputs": [],
      "name": "NotPoolManagerToken",
      "type": "error"
    },
    {
      "inputs": [],
      "name": "PoolAlreadyInitialized",
      "type": "error"
    },
    {
      "inputs": [],
      "name": "PoolNotInitialized",
      "type": "error"
    },
    {
      "inputs": [
        {
          "internalType": "uint160",
          "name": "sqrtPriceCurrentX96",
          "type": "uint160"
        },
        {
          "internalType": "uint160",
          "name": "sqrtPriceLimitX96",
          "type": "uint160"
        }
      ],
      "name": "PriceLimitAlreadyExceeded",
      "type": "error"
    },
    {
      "inputs": [
        {
          "internalType": "uint160",
          "name": "sqrtPriceLimitX96",
          "type": "uint160"
        }
      ],
      "name": "PriceLimitOutOfBounds",
      "type": "error"
    },
    {
      "inputs": [],
      "name": "ProtocolFeeCannotBeFetched",
      "type": "error"
    },
    {
      "inputs": [],
      "name": "SwapAmountCannotBeZero",
      "type": "error"
    },
    {
      "inputs": [
        {
          "internalType": "int24",
          "name": "tick",
          "type": "int24"
        }
      ],
      "name": "TickLiquidityOverflow",
      "type": "error"
    },
    {
      "inputs": [
        {
          "internalType": "int24",
          "name": "tickLower",
          "type": "int24"
        }
      ],
      "name": "TickLowerOutOfBounds",
      "type": "error"
    },
    {
      "inputs": [
        {
          "internalType": "int24",
          "name": "tick",
          "type": "int24"
        },
        {
          "internalType": "int24",
          "name": "tickSpacing",
          "type": "int24"
        }
      ],
      "name": "TickMisaligned",
      "type": "error"
    },
    {
      "inputs": [],
      "name": "TickSpacingTooLarge",
      "type": "error"
    },
    {
      "inputs": [],
      "name": "TickSpacingTooSmall",
      "type": "error"
    },
    {
      "inputs": [
        {
          "internalType": "int24",
          "name": "tickUpper",
          "type": "int24"
        }
      ],
      "name": "TickUpperOutOfBounds",
      "type": "error"
    },
    {
      "inputs": [
        {
          "internalType": "int24",
          "name": "tickLower",
          "type": "int24"
        },
        {
          "internalType": "int24",
          "name": "tickUpper",
          "type": "int24"
        }
      ],
      "name": "TicksMisordered",
      "type": "error"
    },
    {
      "anonymous": false,
      "inputs": [
        {
          "indexed": true,
          "internalType": "address",
          "name": "account",
          "type": "address"
        },
        {
          "indexed": true,
          "internalType": "address",
          "name": "operator",
          "type": "address"
        },
        {
          "indexed": false,
          "internalType": "bool",
          "name": "approved",
          "type": "bool"
        }
      ],
      "name": "ApprovalForAll",
      "type": "event"
    },
    {
      "anonymous": false,
      "inputs": [
        {
          "indexed": true,
          "internalType": "PoolId",
          "name": "id",
          "type": "bytes32"
        },
        {
          "indexed": false,
          "internalType": "uint8",
          "name": "hookSwapFee",
          "type": "uint8"
        },
        {
          "indexed": false,
          "internalType": "uint8",
          "name": "hookWithdrawFee",
          "type": "uint8"
        }
      ],
      "name": "HookFeeUpdated",
      "type": "event"
    },
    {
      "anonymous": false,
      "inputs": [
        {
          "indexed": true,
          "internalType": "PoolId",
          "name": "id",
          "type": "bytes32"
        },
        {
          "indexed": true,
          "internalType": "Currency",
          "name": "currency0",
          "type": "address"
        },
        {
          "indexed": true,
          "internalType": "Currency",
          "name": "currency1",
          "type": "address"
        },
        {
          "indexed": false,
          "internalType": "uint24",
          "name": "fee",
          "type": "uint24"
        },
        {
          "indexed": false,
          "internalType": "int24",
          "name": "tickSpacing",
          "type": "int24"
        },
        {
          "indexed": false,
          "internalType": "contract IHooks",
          "name": "hooks",
          "type": "address"
        }
      ],
      "name": "Initialize",
      "type": "event"
    },
    {
      "anonymous": false,
      "inputs": [
        {
          "indexed": true,
          "internalType": "PoolId",
          "name": "id",
          "type": "bytes32"
        },
        {
          "indexed": true,
          "internalType": "address",
          "name": "sender",
          "type": "address"
        },
        {
          "indexed": false,
          "internalType": "int24",
          "name": "tickLower",
          "type": "int24"
        },
        {
          "indexed": false,
          "internalType": "int24",
          "name": "tickUpper",
          "type": "int24"
        },
        {
          "indexed": false,
          "internalType": "int256",
          "name": "liquidityDelta",
          "type": "int256"
        }
      ],
      "name": "ModifyPosition",
      "type": "event"
    },
    {
      "anonymous": false,
      "inputs": [
        {
          "indexed": true,
          "internalType": "address",
          "name": "oldOwner",
          "type": "address"
        },
        {
          "indexed": true,
          "internalType": "address",
          "name": "newOwner",
          "type": "address"
        }
      ],
      "name": "OwnerChanged",
      "type": "event"
    },
    {
      "anonymous": false,
      "inputs": [
        {
          "indexed": false,
          "internalType": "address",
          "name": "protocolFeeController",
          "type": "address"
        }
      ],
      "name": "ProtocolFeeControllerUpdated",
      "type": "event"
    },
    {
      "anonymous": false,
      "inputs": [
        {
          "indexed": true,
          "internalType": "PoolId",
          "name": "id",
          "type": "bytes32"
        },
        {
          "indexed": false,
          "internalType": "uint8",
          "name": "protocolSwapFee",
          "type": "uint8"
        },
        {
          "indexed": false,
          "internalType": "uint8",
          "name": "protocolWithdrawFee",
          "type": "uint8"
        }
      ],
      "name": "ProtocolFeeUpdated",
      "type": "event"
    },
    {
      "anonymous": false,
      "inputs": [
        {
          "indexed": true,
          "internalType": "PoolId",
          "name": "id",
          "type": "bytes32"
        },
        {
          "indexed": true,
          "internalType": "address",
          "name": "sender",
          "type": "address"
        },
        {
          "indexed": false,
          "internalType": "int128",
          "name": "amount0",
          "type": "int128"
        },
        {
          "indexed": false,
          "internalType": "int128",
          "name": "amount1",
          "type": "int128"
        },
        {
          "indexed": false,
          "internalType": "uint160",
          "name": "sqrtPriceX96",
          "type": "uint160"
        },
        {
          "indexed": false,
          "internalType": "uint128",
          "name": "liquidity",
          "type": "uint128"
        },
        {
          "indexed": false,
          "internalType": "int24",
          "name": "tick",
          "type": "int24"
        },
        {
          "indexed": false,
          "internalType": "uint24",
          "name": "fee",
          "type": "uint24"
        }
      ],
      "name": "Swap",
      "type": "event"
    },
    {
      "anonymous": false,
      "inputs": [
        {
          "indexed": true,
          "internalType": "address",
          "name": "operator",
          "type": "address"
        },
        {
          "indexed": true,
          "internalType": "address",
          "name": "from",
          "type": "address"
        },
        {
          "indexed": true,
          "internalType": "address",
          "name": "to",
          "type": "address"
        },
        {
          "indexed": false,
          "internalType": "uint256[]",
          "name": "ids",
          "type": "uint256[]"
        },
        {
          "indexed": false,
          "internalType": "uint256[]",
          "name": "values",
          "type": "uint256[]"
        }
      ],
      "name": "TransferBatch",
      "type": "event"
    },
    {
      "anonymous": false,
      "inputs": [
        {
          "indexed": true,
          "internalType": "address",
          "name": "operator",
          "type": "address"
        },
        {
          "indexed": true,
          "internalType": "address",
          "name": "from",
          "type": "address"
        },
        {
          "indexed": true,
          "internalType": "address",
          "name": "to",
          "type": "address"
        },
        {
          "indexed": false,
          "internalType": "uint256",
          "name": "id",
          "type": "uint256"
        },
        {
          "indexed": false,
          "internalType": "uint256",
          "name": "value",
          "type": "uint256"
        }
      ],
      "name": "TransferSingle",
      "type": "event"
    },
    {
      "anonymous": false,
      "inputs": [
        {
          "indexed": false,
          "internalType": "string",
          "name": "value",
          "type": "string"
        },
        {
          "indexed": true,
          "internalType": "uint256",
          "name": "id",
          "type": "uint256"
        }
      ],
      "name": "URI",
      "type": "event"
    },
    {
      "inputs": [],
      "name": "MAX_TICK_SPACING",
      "outputs": [
        {
          "internalType": "int24",
          "name": "",
          "type": "int24"
        }
      ],
      "stateMutability": "view",
      "type": "function"
    },
    {
      "inputs": [],
      "name": "MIN_PROTOCOL_FEE_DENOMINATOR",
      "outputs": [
        {
          "internalType": "uint8",
          "name": "",
          "type": "uint8"
        }
      ],
      "stateMutability": "view",
      "type": "function"
    },
    {
      "inputs": [],
      "name": "MIN_TICK_SPACING",
      "outputs": [
        {
          "internalType": "int24",
          "name": "",
          "type": "int24"
        }
      ],
      "stateMutability": "view",
      "type": "function"
    },
    {
      "inputs": [
        {
          "internalType": "address",
          "name": "account",
          "type": "address"
        },
        {
          "internalType": "uint256",
          "name": "id",
          "type": "uint256"
        }
      ],
      "name": "balanceOf",
      "outputs": [
        {
          "internalType": "uint256",
          "name": "",
          "type": "uint256"
        }
      ],
      "stateMutability": "view",
      "type": "function"
    },
    {
      "inputs": [
        {
          "internalType": "address[]",
          "name": "accounts",
          "type": "address[]"
        },
        {
          "internalType": "uint256[]",
          "name": "ids",
          "type": "uint256[]"
        }
      ],
      "name": "balanceOfBatch",
      "outputs": [
        {
          "internalType": "uint256[]",
          "name": "",
          "type": "uint256[]"
        }
      ],
      "stateMutability": "view",
      "type": "function"
    },
    {
      "inputs": [
        {
          "internalType": "address",
          "name": "recipient",
          "type": "address"
        },
        {
          "internalType": "Currency",
          "name": "currency",
          "type": "address"
        },
        {
          "internalType": "uint256",
          "name": "amount",
          "type": "uint256"
        }
      ],
      "name": "collectHookFees",
      "outputs": [
        {
          "internalType": "uint256",
          "name": "amountCollected",
          "type": "uint256"
        }
      ],
      "stateMutability": "nonpayable",
      "type": "function"
    },
    {
      "inputs": [
        {
          "internalType": "address",
          "name": "recipient",
          "type": "address"
        },
        {
          "internalType": "Currency",
          "name": "currency",
          "type": "address"
        },
        {
          "internalType": "uint256",
          "name": "amount",
          "type": "uint256"
        }
      ],
      "name": "collectProtocolFees",
      "outputs": [
        {
          "internalType": "uint256",
          "name": "amountCollected",
          "type": "uint256"
        }
      ],
      "stateMutability": "nonpayable",
      "type": "function"
    },
    {
      "inputs": [
        {
          "internalType": "address",
          "name": "locker",
          "type": "address"
        },
        {
          "internalType": "Currency",
          "name": "currency",
          "type": "address"
        }
      ],
      "name": "currencyDelta",
      "outputs": [
        {
          "internalType": "int256",
          "name": "currencyDelta",
          "type": "int256"
        }
      ],
      "stateMutability": "view",
      "type": "function"
    },
    {
      "inputs": [
        {
          "components": [
            {
              "internalType": "Currency",
              "name": "currency0",
              "type": "address"
            },
            {
              "internalType": "Currency",
              "name": "currency1",
              "type": "address"
            },
            {
              "internalType": "uint24",
              "name": "fee",
              "type": "uint24"
            },
            {
              "internalType": "int24",
              "name": "tickSpacing",
              "type": "int24"
            },
            {
              "internalType": "contract IHooks",
              "name": "hooks",
              "type": "address"
            }
          ],
          "internalType": "struct PoolKey",
          "name": "key",
          "type": "tuple"
        },
        {
          "internalType": "uint256",
          "name": "amount0",
          "type": "uint256"
        },
        {
          "internalType": "uint256",
          "name": "amount1",
          "type": "uint256"
        },
        {
          "internalType": "bytes",
          "name": "hookData",
          "type": "bytes"
        }
      ],
      "name": "donate",
      "outputs": [
        {
          "internalType": "BalanceDelta",
          "name": "delta",
          "type": "int256"
        }
      ],
      "stateMutability": "nonpayable",
      "type": "function"
    },
    {
      "inputs": [
        {
          "internalType": "bytes32",
          "name": "slot",
          "type": "bytes32"
        }
      ],
      "name": "extsload",
      "outputs": [
        {
          "internalType": "bytes32",
          "name": "value",
          "type": "bytes32"
        }
      ],
      "stateMutability": "view",
      "type": "function"
    },
    {
      "inputs": [
        {
          "internalType": "bytes32",
          "name": "startSlot",
          "type": "bytes32"
        },
        {
          "internalType": "uint256",
          "name": "nSlots",
          "type": "uint256"
        }
      ],
      "name": "extsload",
      "outputs": [
        {
          "internalType": "bytes",
          "name": "",
          "type": "bytes"
        }
      ],
      "stateMutability": "view",
      "type": "function"
    },
    {
      "inputs": [
        {
          "internalType": "PoolId",
          "name": "id",
          "type": "bytes32"
        },
        {
          "internalType": "address",
          "name": "_owner",
          "type": "address"
        },
        {
          "internalType": "int24",
          "name": "tickLower",
          "type": "int24"
        },
        {
          "internalType": "int24",
          "name": "tickUpper",
          "type": "int24"
        }
      ],
      "name": "getLiquidity",
      "outputs": [
        {
          "internalType": "uint128",
          "name": "liquidity",
          "type": "uint128"
        }
      ],
      "stateMutability": "view",
      "type": "function"
    },
    {
      "inputs": [
        {
          "internalType": "PoolId",
          "name": "id",
          "type": "bytes32"
        }
      ],
      "name": "getLiquidity",
      "outputs": [
        {
          "internalType": "uint128",
          "name": "liquidity",
          "type": "uint128"
        }
      ],
      "stateMutability": "view",
      "type": "function"
    },
    {
      "inputs": [
        {
          "internalType": "uint256",
          "name": "i",
          "type": "uint256"
        }
      ],
      "name": "getLock",
      "outputs": [
        {
          "internalType": "address",
          "name": "locker",
          "type": "address"
        }
      ],
      "stateMutability": "view",
      "type": "function"
    },
    {
      "inputs": [
        {
          "internalType": "PoolId",
          "name": "id",
          "type": "bytes32"
        },
        {
          "internalType": "address",
          "name": "owner",
          "type": "address"
        },
        {
          "internalType": "int24",
          "name": "tickLower",
          "type": "int24"
        },
        {
          "internalType": "int24",
          "name": "tickUpper",
          "type": "int24"
        }
      ],
      "name": "getPosition",
      "outputs": [
        {
          "components": [
            {
              "internalType": "uint128",
              "name": "liquidity",
              "type": "uint128"
            },
            {
              "internalType": "uint256",
              "name": "feeGrowthInside0LastX128",
              "type": "uint256"
            },
            {
              "internalType": "uint256",
              "name": "feeGrowthInside1LastX128",
              "type": "uint256"
            }
          ],
          "internalType": "struct Position.Info",
          "name": "position",
          "type": "tuple"
        }
      ],
      "stateMutability": "view",
      "type": "function"
    },
    {
      "inputs": [
        {
          "internalType": "PoolId",
          "name": "id",
          "type": "bytes32"
        }
      ],
      "name": "getSlot0",
      "outputs": [
        {
          "internalType": "uint160",
          "name": "sqrtPriceX96",
          "type": "uint160"
        },
        {
          "internalType": "int24",
          "name": "tick",
          "type": "int24"
        },
        {
          "internalType": "uint8",
          "name": "protocolSwapFee",
          "type": "uint8"
        },
        {
          "internalType": "uint8",
          "name": "protocolWithdrawFee",
          "type": "uint8"
        },
        {
          "internalType": "uint8",
          "name": "hookSwapFee",
          "type": "uint8"
        },
        {
          "internalType": "uint8",
          "name": "hookWithdrawFee",
          "type": "uint8"
        }
      ],
      "stateMutability": "view",
      "type": "function"
    },
    {
      "inputs": [
        {
          "internalType": "address",
          "name": "hookAddress",
          "type": "address"
        },
        {
          "internalType": "Currency",
          "name": "currency",
          "type": "address"
        }
      ],
      "name": "hookFeesAccrued",
      "outputs": [
        {
          "internalType": "uint256",
          "name": "",
          "type": "uint256"
        }
      ],
      "stateMutability": "view",
      "type": "function"
    },
    {
      "inputs": [
        {
          "components": [
            {
              "internalType": "Currency",
              "name": "currency0",
              "type": "address"
            },
            {
              "internalType": "Currency",
              "name": "currency1",
              "type": "address"
            },
            {
              "internalType": "uint24",
              "name": "fee",
              "type": "uint24"
            },
            {
              "internalType": "int24",
              "name": "tickSpacing",
              "type": "int24"
            },
            {
              "internalType": "contract IHooks",
              "name": "hooks",
              "type": "address"
            }
          ],
          "internalType": "struct PoolKey",
          "name": "key",
          "type": "tuple"
        },
        {
          "internalType": "uint160",
          "name": "sqrtPriceX96",
          "type": "uint160"
        },
        {
          "internalType": "bytes",
          "name": "hookData",
          "type": "bytes"
        }
      ],
      "name": "initialize",
      "outputs": [
        {
          "internalType": "int24",
          "name": "tick",
          "type": "int24"
        }
      ],
      "stateMutability": "nonpayable",
      "type": "function"
    },
    {
      "inputs": [
        {
          "internalType": "address",
          "name": "account",
          "type": "address"
        },
        {
          "internalType": "address",
          "name": "operator",
          "type": "address"
        }
      ],
      "name": "isApprovedForAll",
      "outputs": [
        {
          "internalType": "bool",
          "name": "",
          "type": "bool"
        }
      ],
      "stateMutability": "view",
      "type": "function"
    },
    {
      "inputs": [
        {
          "internalType": "bytes",
          "name": "data",
          "type": "bytes"
        }
      ],
      "name": "lock",
      "outputs": [
        {
          "internalType": "bytes",
          "name": "result",
          "type": "bytes"
        }
      ],
      "stateMutability": "nonpayable",
      "type": "function"
    },
    {
      "inputs": [],
      "name": "lockData",
      "outputs": [
        {
          "internalType": "uint128",
          "name": "length",
          "type": "uint128"
        },
        {
          "internalType": "uint128",
          "name": "nonzeroDeltaCount",
          "type": "uint128"
        }
      ],
      "stateMutability": "view",
      "type": "function"
    },
    {
      "inputs": [
        {
          "internalType": "Currency",
          "name": "currency",
          "type": "address"
        },
        {
          "internalType": "address",
          "name": "to",
          "type": "address"
        },
        {
          "internalType": "uint256",
          "name": "amount",
          "type": "uint256"
        }
      ],
      "name": "mint",
      "outputs": [],
      "stateMutability": "nonpayable",
      "type": "function"
    },
    {
      "inputs": [
        {
          "components": [
            {
              "internalType": "Currency",
              "name": "currency0",
              "type": "address"
            },
            {
              "internalType": "Currency",
              "name": "currency1",
              "type": "address"
            },
            {
              "internalType": "uint24",
              "name": "fee",
              "type": "uint24"
            },
            {
              "internalType": "int24",
              "name": "tickSpacing",
              "type": "int24"
            },
            {
              "internalType": "contract IHooks",
              "name": "hooks",
              "type": "address"
            }
          ],
          "internalType": "struct PoolKey",
          "name": "key",
          "type": "tuple"
        },
        {
          "components": [
            {
              "internalType": "int24",
              "name": "tickLower",
              "type": "int24"
            },
            {
              "internalType": "int24",
              "name": "tickUpper",
              "type": "int24"
            },
            {
              "internalType": "int256",
              "name": "liquidityDelta",
              "type": "int256"
            }
          ],
          "internalType": "struct IPoolManager.ModifyPositionParams",
          "name": "params",
          "type": "tuple"
        },
        {
          "internalType": "bytes",
          "name": "hookData",
          "type": "bytes"
        }
      ],
      "name": "modifyPosition",
      "outputs": [
        {
          "internalType": "BalanceDelta",
          "name": "delta",
          "type": "int256"
        }
      ],
      "stateMutability": "nonpayable",
      "type": "function"
    },
    {
      "inputs": [
        {
          "internalType": "address",
          "name": "",
          "type": "address"
        },
        {
          "internalType": "address",
          "name": "",
          "type": "address"
        },
        {
          "internalType": "uint256[]",
          "name": "ids",
          "type": "uint256[]"
        },
        {
          "internalType": "uint256[]",
          "name": "values",
          "type": "uint256[]"
        },
        {
          "internalType": "bytes",
          "name": "",
          "type": "bytes"
        }
      ],
      "name": "onERC1155BatchReceived",
      "outputs": [
        {
          "internalType": "bytes4",
          "name": "",
          "type": "bytes4"
        }
      ],
      "stateMutability": "nonpayable",
      "type": "function"
    },
    {
      "inputs": [
        {
          "internalType": "address",
          "name": "",
          "type": "address"
        },
        {
          "internalType": "address",
          "name": "",
          "type": "address"
        },
        {
          "internalType": "uint256",
          "name": "id",
          "type": "uint256"
        },
        {
          "internalType": "uint256",
          "name": "value",
          "type": "uint256"
        },
        {
          "internalType": "bytes",
          "name": "",
          "type": "bytes"
        }
      ],
      "name": "onERC1155Received",
      "outputs": [
        {
          "internalType": "bytes4",
          "name": "",
          "type": "bytes4"
        }
      ],
      "stateMutability": "nonpayable",
      "type": "function"
    },
    {
      "inputs": [],
      "name": "owner",
      "outputs": [
        {
          "internalType": "address",
          "name": "",
          "type": "address"
        }
      ],
      "stateMutability": "view",
      "type": "function"
    },
    {
      "inputs": [
        {
          "internalType": "PoolId",
          "name": "id",
          "type": "bytes32"
        }
      ],
      "name": "pools",
      "outputs": [
        {
          "components": [
            {
              "internalType": "uint160",
              "name": "sqrtPriceX96",
              "type": "uint160"
            },
            {
              "internalType": "int24",
              "name": "tick",
              "type": "int24"
            },
            {
              "internalType": "uint8",
              "name": "protocolSwapFee",
              "type": "uint8"
            },
            {
              "internalType": "uint8",
              "name": "protocolWithdrawFee",
              "type": "uint8"
            },
            {
              "internalType": "uint8",
              "name": "hookSwapFee",
              "type": "uint8"
            },
            {
              "internalType": "uint8",
              "name": "hookWithdrawFee",
              "type": "uint8"
            }
          ],
          "internalType": "struct Pool.Slot0",
          "name": "slot0",
          "type": "tuple"
        },
        {
          "internalType": "uint256",
          "name": "feeGrowthGlobal0X128",
          "type": "uint256"
        },
        {
          "internalType": "uint256",
          "name": "feeGrowthGlobal1X128",
          "type": "uint256"
        },
        {
          "internalType": "uint128",
          "name": "liquidity",
          "type": "uint128"
        }
      ],
      "stateMutability": "view",
      "type": "function"
    },
    {
      "inputs": [],
      "name": "protocolFeeController",
      "outputs": [
        {
          "internalType": "contract IProtocolFeeController",
          "name": "",
          "type": "address"
        }
      ],
      "stateMutability": "view",
      "type": "function"
    },
    {
      "inputs": [
        {
          "internalType": "Currency",
          "name": "currency",
          "type": "address"
        }
      ],
      "name": "protocolFeesAccrued",
      "outputs": [
        {
          "internalType": "uint256",
          "name": "",
          "type": "uint256"
        }
      ],
      "stateMutability": "view",
      "type": "function"
    },
    {
      "inputs": [
        {
          "internalType": "Currency",
          "name": "currency",
          "type": "address"
        }
      ],
      "name": "reservesOf",
      "outputs": [
        {
          "internalType": "uint256",
          "name": "",
          "type": "uint256"
        }
      ],
      "stateMutability": "view",
      "type": "function"
    },
    {
      "inputs": [
        {
          "internalType": "address",
          "name": "from",
          "type": "address"
        },
        {
          "internalType": "address",
          "name": "to",
          "type": "address"
        },
        {
          "internalType": "uint256[]",
          "name": "ids",
          "type": "uint256[]"
        },
        {
          "internalType": "uint256[]",
          "name": "values",
          "type": "uint256[]"
        },
        {
          "internalType": "bytes",
          "name": "data",
          "type": "bytes"
        }
      ],
      "name": "safeBatchTransferFrom",
      "outputs": [],
      "stateMutability": "nonpayable",
      "type": "function"
    },
    {
      "inputs": [
        {
          "internalType": "address",
          "name": "from",
          "type": "address"
        },
        {
          "internalType": "address",
          "name": "to",
          "type": "address"
        },
        {
          "internalType": "uint256",
          "name": "id",
          "type": "uint256"
        },
        {
          "internalType": "uint256",
          "name": "value",
          "type": "uint256"
        },
        {
          "internalType": "bytes",
          "name": "data",
          "type": "bytes"
        }
      ],
      "name": "safeTransferFrom",
      "outputs": [],
      "stateMutability": "nonpayable",
      "type": "function"
    },
    {
      "inputs": [
        {
          "internalType": "address",
          "name": "operator",
          "type": "address"
        },
        {
          "internalType": "bool",
          "name": "approved",
          "type": "bool"
        }
      ],
      "name": "setApprovalForAll",
      "outputs": [],
      "stateMutability": "nonpayable",
      "type": "function"
    },
    {
      "inputs": [
        {
          "components": [
            {
              "internalType": "Currency",
              "name": "currency0",
              "type": "address"
            },
            {
              "internalType": "Currency",
              "name": "currency1",
              "type": "address"
            },
            {
              "internalType": "uint24",
              "name": "fee",
              "type": "uint24"
            },
            {
              "internalType": "int24",
              "name": "tickSpacing",
              "type": "int24"
            },
            {
              "internalType": "contract IHooks",
              "name": "hooks",
              "type": "address"
            }
          ],
          "internalType": "struct PoolKey",
          "name": "key",
          "type": "tuple"
        }
      ],
      "name": "setHookFees",
      "outputs": [],
      "stateMutability": "nonpayable",
      "type": "function"
    },
    {
      "inputs": [
        {
          "internalType": "address",
          "name": "_owner",
          "type": "address"
        }
      ],
      "name": "setOwner",
      "outputs": [],
      "stateMutability": "nonpayable",
      "type": "function"
    },
    {
      "inputs": [
        {
          "internalType": "contract IProtocolFeeController",
          "name": "controller",
          "type": "address"
        }
      ],
      "name": "setProtocolFeeController",
      "outputs": [],
      "stateMutability": "nonpayable",
      "type": "function"
    },
    {
      "inputs": [
        {
          "components": [
            {
              "internalType": "Currency",
              "name": "currency0",
              "type": "address"
            },
            {
              "internalType": "Currency",
              "name": "currency1",
              "type": "address"
            },
            {
              "internalType": "uint24",
              "name": "fee",
              "type": "uint24"
            },
            {
              "internalType": "int24",
              "name": "tickSpacing",
              "type": "int24"
            },
            {
              "internalType": "contract IHooks",
              "name": "hooks",
              "type": "address"
            }
          ],
          "internalType": "struct PoolKey",
          "name": "key",
          "type": "tuple"
        }
      ],
      "name": "setProtocolFees",
      "outputs": [],
      "stateMutability": "nonpayable",
      "type": "function"
    },
    {
      "inputs": [
        {
          "internalType": "Currency",
          "name": "currency",
          "type": "address"
        }
      ],
      "name": "settle",
      "outputs": [
        {
          "internalType": "uint256",
          "name": "paid",
          "type": "uint256"
        }
      ],
      "stateMutability": "payable",
      "type": "function"
    },
    {
      "inputs": [
        {
          "internalType": "bytes4",
          "name": "interfaceId",
          "type": "bytes4"
        }
      ],
      "name": "supportsInterface",
      "outputs": [
        {
          "internalType": "bool",
          "name": "",
          "type": "bool"
        }
      ],
      "stateMutability": "view",
      "type": "function"
    },
    {
      "inputs": [
        {
          "components": [
            {
              "internalType": "Currency",
              "name": "currency0",
              "type": "address"
            },
            {
              "internalType": "Currency",
              "name": "currency1",
              "type": "address"
            },
            {
              "internalType": "uint24",
              "name": "fee",
              "type": "uint24"
            },
            {
              "internalType": "int24",
              "name": "tickSpacing",
              "type": "int24"
            },
            {
              "internalType": "contract IHooks",
              "name": "hooks",
              "type": "address"
            }
          ],
          "internalType": "struct PoolKey",
          "name": "key",
          "type": "tuple"
        },
        {
          "components": [
            {
              "internalType": "bool",
              "name": "zeroForOne",
              "type": "bool"
            },
            {
              "internalType": "int256",
              "name": "amountSpecified",
              "type": "int256"
            },
            {
              "internalType": "uint160",
              "name": "sqrtPriceLimitX96",
              "type": "uint160"
            }
          ],
          "internalType": "struct IPoolManager.SwapParams",
          "name": "params",
          "type": "tuple"
        },
        {
          "internalType": "bytes",
          "name": "hookData",
          "type": "bytes"
        }
      ],
      "name": "swap",
      "outputs": [
        {
          "internalType": "BalanceDelta",
          "name": "delta",
          "type": "int256"
        }
      ],
      "stateMutability": "nonpayable",
      "type": "function"
    },
    {
      "inputs": [
        {
          "internalType": "Currency",
          "name": "currency",
          "type": "address"
        },
        {
          "internalType": "address",
          "name": "to",
          "type": "address"
        },
        {
          "internalType": "uint256",
          "name": "amount",
          "type": "uint256"
        }
      ],
      "name": "take",
      "outputs": [],
      "stateMutability": "nonpayable",
      "type": "function"
    },
    {
      "inputs": [
        {
          "internalType": "uint256",
          "name": "",
          "type": "uint256"
        }
      ],
      "name": "uri",
      "outputs": [
        {
          "internalType": "string",
          "name": "",
          "type": "string"
        }
      ],
      "stateMutability": "view",
      "type": "function"
    },
    {
      "stateMutability": "payable",
      "type": "receive"
    }
  ],
  "bytecode": {
    "object": "0x60c06040523480156200001157600080fd5b5060405162009037380380620090378339810160408190526200003491620000af565b60408051602081018252600080825280546001600160a01b0319163390811782559251919284929091907fb532073b38c83145e3e5135377a08bf9aab55bc0fd7c1179cd4fb995d2a5159c908290a36080523060a05262000095816200009d565b50506200023a565b6006620000ab82826200016e565b5050565b600060208284031215620000c257600080fd5b5051919050565b634e487b7160e01b600052604160045260246000fd5b600181811c90821680620000f457607f821691505b6020821081036200011557634e487b7160e01b600052602260045260246000fd5b50919050565b601f8211156200016957600081815260208120601f850160051c81016020861015620001445750805b601f850160051c820191505b81811015620001655782815560010162000150565b5050505b505050565b81516001600160401b038111156200018a576200018a620000c9565b620001a2816200019b8454620000df565b846200011b565b602080601f831160018114620001da5760008415620001c15750858301515b600019600386901b1c1916600185901b17855562000165565b600085815260208120601f198616915b828110156200020b57888601518255948401946001909101908401620001ea565b50858210156200022a5787850151600019600388901b60f8161c191681555b5050505050600190811b01905550565b60805160a051618dd06200026760003960006130180152600081816134b201526135540152618dd06000f3fe6080604052600436106102d45760003560e01c806384e41c5e11610179578063c6c3bbe6116100d6578063f02de3b21161008a578063f3cd914c11610064578063f3cd914c14610c25578063f8fcd15614610c45578063fa6793d514610caf57600080fd5b8063f02de3b214610bb8578063f23a6e6114610be5578063f242432a14610c0557600080fd5b8063d68f4dd1116100bb578063d68f4dd114610b22578063e985e9c514610b42578063effd18c014610b9857600080fd5b8063c6c3bbe61461099a578063c815641c146109ba57600080fd5b8063a54b28311161012d578063b4c4193911610112578063b4c41939146107d6578063b5217bb41461080e578063bc197c811461094957600080fd5b8063a54b28311461077e578063af440f82146107b657600080fd5b806393c85a211161015e57806393c85a211461070457806397e8cd4e14610731578063a22cb4651461075e57600080fd5b806384e41c5e1461068b5780638da5cb5b146106b257600080fd5b80632d7713891161023257806360460f06116101e65780636a256b29116101c05780636a256b2914610638578063815483191461064b5780638161b8741461066b57600080fd5b806360460f06146105e257806361ae449a146105f8578063695c5bf51461061857600080fd5b806333aa955b1161021757806333aa955b146104cd57806335fd631a146105955780634e1273f4146105b557600080fd5b80632d7713891461048d5780632eb2c2d6146104ad57600080fd5b80630e89341c116102895780631e2eaeaf1161026e5780631e2eaeaf1461042e578063234266d71461044d578063282076cc1461046d57600080fd5b80630e89341c146103e157806313af40351461040e57600080fd5b8063048d9c70116102ba578063048d9c701461034357806307eff0dd146103975780630b0d9c09146103bf57600080fd5b8062fdd58e146102e057806301ffc9a71461031357600080fd5b366102db57005b600080fd5b3480156102ec57600080fd5b506103006102fb366004617709565b610cf1565b6040519081526020015b60405180910390f35b34801561031f57600080fd5b5061033361032e366004617763565b610d28565b604051901515815260200161030a565b34801561034f57600080fd5b5061036361035e366004617792565b610e0b565b6040805182516fffffffffffffffffffffffffffffffff16815260208084015190820152918101519082015260600161030a565b3480156103a357600080fd5b506103ac600181565b60405160029190910b815260200161030a565b3480156103cb57600080fd5b506103df6103da3660046177e1565b610ef1565b005b3480156103ed57600080fd5b506104016103fc366004617822565b610fe7565b60405161030a91906178a9565b34801561041a57600080fd5b506103df6104293660046178bc565b61107b565b34801561043a57600080fd5b50610300610449366004617822565b5490565b34801561045957600080fd5b50610300610468366004617a74565b611159565b34801561047957600080fd5b506103df610488366004617ade565b61143f565b34801561049957600080fd5b506103df6104a83660046178bc565b6114bc565b3480156104b957600080fd5b506103df6104c8366004617c20565b611586565b3480156104d957600080fd5b506105746104e8366004617792565b6000938452600a60209081526040808620815160609690961b7fffffffffffffffffffffffffffffffffffffffff000000000000000000000000168684015260e894851b60348701529290931b60378501528251601a818603018152603a909401835283519381019390932084526006019091529020546fffffffffffffffffffffffffffffffff1690565b6040516fffffffffffffffffffffffffffffffff909116815260200161030a565b3480156105a157600080fd5b506104016105b0366004617cce565b61164c565b3480156105c157600080fd5b506105d56105d0366004617cf0565b6116cc565b60405161030a9190617ded565b3480156105ee57600080fd5b506103ac617fff81565b34801561060457600080fd5b50610300610613366004617e00565b6117b2565b34801561062457600080fd5b506103ac610633366004617ebb565b611cb1565b6103006106463660046178bc565b6121b3565b34801561065757600080fd5b50610401610666366004617f07565b6122b4565b34801561067757600080fd5b506103006106863660046177e1565b6124bc565b34801561069757600080fd5b506106a0600481565b60405160ff909116815260200161030a565b3480156106be57600080fd5b506000546106df9073ffffffffffffffffffffffffffffffffffffffff1681565b60405173ffffffffffffffffffffffffffffffffffffffff909116815260200161030a565b34801561071057600080fd5b5061030061071f3660046178bc565b60096020526000908152604090205481565b34801561073d57600080fd5b5061030061074c3660046178bc565b60016020526000908152604090205481565b34801561076a57600080fd5b506103df610779366004617f59565b6125cf565b34801561078a57600080fd5b50610300610799366004617f8e565b600860209081526000928352604080842090915290825290205481565b3480156107c257600080fd5b506103df6107d1366004617ade565b6125de565b3480156107e257600080fd5b506103006107f1366004617f8e565b600260209081526000928352604080842090915290825290205481565b34801561081a57600080fd5b50610939610829366004617822565b600a60209081526000918252604091829020825160c081018452815473ffffffffffffffffffffffffffffffffffffffff81168252740100000000000000000000000000000000000000008104600290810b9483019490945260ff77010000000000000000000000000000000000000000000000820481169583019590955278010000000000000000000000000000000000000000000000008104851660608301527901000000000000000000000000000000000000000000000000008104851660808301527a010000000000000000000000000000000000000000000000000000900490931660a08401526001810154918101546003909101546fffffffffffffffffffffffffffffffff1684565b60405161030a9493929190617fc7565b34801561095557600080fd5b5061096961096436600461809b565b612651565b6040517fffffffff00000000000000000000000000000000000000000000000000000000909116815260200161030a565b3480156109a657600080fd5b506103df6109b53660046177e1565b61270e565b3480156109c657600080fd5b50610ad06109d5366004617822565b6000908152600a6020908152604091829020825160c081018452905473ffffffffffffffffffffffffffffffffffffffff811680835274010000000000000000000000000000000000000000820460020b93830184905260ff77010000000000000000000000000000000000000000000000830481169584018690527801000000000000000000000000000000000000000000000000830481166060850181905279010000000000000000000000000000000000000000000000000084048216608086018190527a01000000000000000000000000000000000000000000000000000090940490911660a09094018490529095939493909290565b6040805173ffffffffffffffffffffffffffffffffffffffff909716875260029590950b602087015260ff938416948601949094529082166060850152811660808401521660a082015260c00161030a565b348015610b2e57600080fd5b506106df610b3d366004617822565b6127c9565b348015610b4e57600080fd5b50610333610b5d366004617f8e565b73ffffffffffffffffffffffffffffffffffffffff918216600090815260056020908152604080832093909416825291909152205460ff1690565b348015610ba457600080fd5b50610300610bb33660046177e1565b6127f5565b348015610bc457600080fd5b506003546106df9073ffffffffffffffffffffffffffffffffffffffff1681565b348015610bf157600080fd5b50610969610c0036600461815a565b6128ce565b348015610c1157600080fd5b506103df610c203660046181d6565b61293f565b348015610c3157600080fd5b50610300610c4036600461823f565b6129fd565b348015610c5157600080fd5b50600754610c86906fffffffffffffffffffffffffffffffff8082169170010000000000000000000000000000000090041682565b604080516fffffffffffffffffffffffffffffffff93841681529290911660208301520161030a565b348015610cbb57600080fd5b50610574610cca366004617822565b6000908152600a60205260409020600301546fffffffffffffffffffffffffffffffff1690565b600081815260046020908152604080832073ffffffffffffffffffffffffffffffffffffffff861684529091529020545b92915050565b60007fffffffff0000000000000000000000000000000000000000000000000000000082167fd9b67a26000000000000000000000000000000000000000000000000000000001480610dbb57507fffffffff0000000000000000000000000000000000000000000000000000000082167f0e89341c00000000000000000000000000000000000000000000000000000000145b80610d2257507f01ffc9a7000000000000000000000000000000000000000000000000000000007fffffffff00000000000000000000000000000000000000000000000000000000831614610d22565b610e41604051806060016040528060006fffffffffffffffffffffffffffffffff16815260200160008152602001600081525090565b6000858152600a6020908152604080832081517fffffffffffffffffffffffffffffffffffffffff00000000000000000000000060608a901b168185015260e888811b603483015287901b60378201528251808203601a018152603a9091018352805190840120845260060190915290206040805160608101825282546fffffffffffffffffffffffffffffffff168152600183015460208201526002909201549082015290505b949350505050565b610ef9613000565b6000610f056007613071565b90503373ffffffffffffffffffffffffffffffffffffffff821614610f73576040517f4f4b04cc00000000000000000000000000000000000000000000000000000000815273ffffffffffffffffffffffffffffffffffffffff821660048201526024015b60405180910390fd5b610f8584610f80846130d0565b6130f3565b73ffffffffffffffffffffffffffffffffffffffff841660009081526009602052604081208054849290610fba908490618313565b90915550610fe1905073ffffffffffffffffffffffffffffffffffffffff8516848461323f565b50505050565b606060068054610ff690618326565b80601f016020809104026020016040519081016040528092919081815260200182805461102290618326565b801561106f5780601f106110445761010080835404028352916020019161106f565b820191906000526020600020905b81548152906001019060200180831161105257829003601f168201915b50505050509050919050565b60005473ffffffffffffffffffffffffffffffffffffffff1633146110cc576040517f48f5c3ed00000000000000000000000000000000000000000000000000000000815260040160405180910390fd5b6000805460405173ffffffffffffffffffffffffffffffffffffffff808516939216917fb532073b38c83145e3e5135377a08bf9aab55bc0fd7c1179cd4fb995d2a5159c91a3600080547fffffffffffffffffffffffff00000000000000000000000000000000000000001673ffffffffffffffffffffffffffffffffffffffff92909216919091179055565b6000611163613000565b600061116f6007613071565b90503373ffffffffffffffffffffffffffffffffffffffff8216146111d8576040517f4f4b04cc00000000000000000000000000000000000000000000000000000000815273ffffffffffffffffffffffffffffffffffffffff82166004820152602401610f6a565b608087015173020000000000000000000000000000000000000016156112f65760808701516040517fb6a8b0fa000000000000000000000000000000000000000000000000000000008082529173ffffffffffffffffffffffffffffffffffffffff169063b6a8b0fa9061125a9033908c908c908c908c908c906004016183c2565b6020604051808303816000875af1158015611279573d6000803e3d6000fd5b505050506040513d601f19601f8201168201806040525081019061129d919061845c565b7fffffffff0000000000000000000000000000000000000000000000000000000016146112f6576040517f1e048e1d00000000000000000000000000000000000000000000000000000000815260040160405180910390fd5b61130b86866113048a613331565b9190613355565b9150611317878361346e565b608087015173010000000000000000000000000000000000000016156114355760808701516040517fe1b4af69000000000000000000000000000000000000000000000000000000008082529173ffffffffffffffffffffffffffffffffffffffff169063e1b4af69906113999033908c908c908c908c908c906004016183c2565b6020604051808303816000875af11580156113b8573d6000803e3d6000fd5b505050506040513d601f19601f820116820180604052508101906113dc919061845c565b7fffffffff000000000000000000000000000000000000000000000000000000001614611435576040517f1e048e1d00000000000000000000000000000000000000000000000000000000815260040160405180910390fd5b5095945050505050565b60008061144b8361348d565b91509150600061145a846135fb565b6000818152600a6020526040902090915061147690848461362b565b6040805160ff80861682528416602082015282917f68cf4f9df39d4652e13d29995bfc957b7194ed36d602f1328593dcedcdfa626c91015b60405180910390a250505050565b60005473ffffffffffffffffffffffffffffffffffffffff16331461150d576040517f48f5c3ed00000000000000000000000000000000000000000000000000000000815260040160405180910390fd5b600380547fffffffffffffffffffffffff00000000000000000000000000000000000000001673ffffffffffffffffffffffffffffffffffffffff83169081179091556040519081527fb4bd8ef53df690b9943d3318996006dbb82a25f54719d8c8035b516a2a5b8acc9060200160405180910390a150565b3373ffffffffffffffffffffffffffffffffffffffff861681148015906115e0575073ffffffffffffffffffffffffffffffffffffffff80871660009081526005602090815260408083209385168352929052205460ff16155b15611637576040517fe237d92200000000000000000000000000000000000000000000000000000000815273ffffffffffffffffffffffffffffffffffffffff808316600483015287166024820152604401610f6a565b6116448686868686613706565b505050505050565b6060600061165b836020618479565b67ffffffffffffffff811115611673576116736178d9565b6040519080825280601f01601f19166020018201604052801561169d576020820181803683370190505b50905060005b838110156116c45780850154602060018301028301526001810190506116a3565b509392505050565b6060815183511461171657815183516040517f5b05999100000000000000000000000000000000000000000000000000000000815260048101929092526024820152604401610f6a565b6000835167ffffffffffffffff811115611732576117326178d9565b60405190808252806020026020018201604052801561175b578160200160208202803683370190505b50905060005b84518110156116c45760208082028601015161178590602080840287010151610cf1565b82828151811061179757611797618490565b60209081029190910101526117ab816184bf565b9050611761565b60006117bc613000565b60006117c86007613071565b90503373ffffffffffffffffffffffffffffffffffffffff821614611831576040517f4f4b04cc00000000000000000000000000000000000000000000000000000000815273ffffffffffffffffffffffffffffffffffffffff82166004820152602401610f6a565b6080860151732000000000000000000000000000000000000000161561194d5760808601516040517ffe9a6f45000000000000000000000000000000000000000000000000000000008082529173ffffffffffffffffffffffffffffffffffffffff169063fe9a6f45906118b19033908b908b908b908b906004016184f7565b6020604051808303816000875af11580156118d0573d6000803e3d6000fd5b505050506040513d601f19601f820116820180604052508101906118f4919061845c565b7fffffffff00000000000000000000000000000000000000000000000000000000161461194d576040517f1e048e1d00000000000000000000000000000000000000000000000000000000815260040160405180910390fd5b6000611958876135fb565b90506119856040518060800160405280600081526020016000815260200160008152602001600081525090565b6119fd6040518060a001604052803373ffffffffffffffffffffffffffffffffffffffff168152602001896000015160020b8152602001896020015160020b81526020016119d68a604001516137ba565b600f0b815260608b015160020b6020918201526000858152600a90915260409020906137d0565b9094509050611a0c888561346e565b805115611a43578051885173ffffffffffffffffffffffffffffffffffffffff166000908152600160205260409020805490910190555b602081015115611a84576020808201518982015173ffffffffffffffffffffffffffffffffffffffff16600090815260019092526040909120805490910190555b604081015115611ad75760408082015160808a015173ffffffffffffffffffffffffffffffffffffffff9081166000908152600260209081528482208d5190931682529190915291909120805490910190555b606081015115611b29576060810151608089015173ffffffffffffffffffffffffffffffffffffffff9081166000908152600260209081526040808320828e0151909416835292905220805490910190555b60808801517310000000000000000000000000000000000000001615611c475760808801516040517f30b7cdef000000000000000000000000000000000000000000000000000000008082529173ffffffffffffffffffffffffffffffffffffffff16906330b7cdef90611bab9033908d908d908b908e908e906004016185b5565b6020604051808303816000875af1158015611bca573d6000803e3d6000fd5b505050506040513d601f19601f82011682018060405250810190611bee919061845c565b7fffffffff000000000000000000000000000000000000000000000000000000001614611c47576040517f1e048e1d00000000000000000000000000000000000000000000000000000000815260040160405180910390fd5b865160208801516040808a01519051339386937fc54f65a0367b92850ef8e90f7e302da8b0a137ab343132a9b8d0e63e684bf53c93611c9e93600293840b81529190920b6020820152604081019190915260600190565b60405180910390a3505050949350505050565b6040840151600090620f4240620fffff90911610611cfb576040517ffc5bee1200000000000000000000000000000000000000000000000000000000815260040160405180910390fd5b6060850151617fff60029190910b1315611d41576040517fb02b5dc200000000000000000000000000000000000000000000000000000000815260040160405180910390fd5b600160020b856060015160020b1215611d86576040517f16fe769600000000000000000000000000000000000000000000000000000000815260040160405180910390fd5b8451602086015173ffffffffffffffffffffffffffffffffffffffff90811691161115611ddf576040517f0b44bce200000000000000000000000000000000000000000000000000000000815260040160405180910390fd5b611e108560400151866080015173ffffffffffffffffffffffffffffffffffffffff16613e4090919063ffffffff16565b611e645760808501516040517fe65af6a000000000000000000000000000000000000000000000000000000000815273ffffffffffffffffffffffffffffffffffffffff9091166004820152602401610f6a565b60808501517380000000000000000000000000000000000000001615611f805760808501516040517f3440d820000000000000000000000000000000000000000000000000000000008082529173ffffffffffffffffffffffffffffffffffffffff1690633440d82090611ee49033908a908a908a908a9060040161866e565b6020604051808303816000875af1158015611f03573d6000803e3d6000fd5b505050506040513d601f19601f82011682018060405250810190611f27919061845c565b7fffffffff000000000000000000000000000000000000000000000000000000001614611f80576040517f1e048e1d00000000000000000000000000000000000000000000000000000000815260040160405180910390fd5b6000611f8b866135fb565b9050600080611f998861348d565b91509150600080611fa98a613eeb565b6000878152600a602052604090209193509150611fca908a86858786614014565b60808b015190965073400000000000000000000000000000000000000016156120f75763a910f80f60e01b7bffffffffffffffffffffffffffffffffffffffffffffffffffffffff19168a6080015173ffffffffffffffffffffffffffffffffffffffff1663a910f80f338d8d8b8e8e6040518763ffffffff1660e01b815260040161205b96959493929190618704565b6020604051808303816000875af115801561207a573d6000803e3d6000fd5b505050506040513d601f19601f8201168201806040525081019061209e919061845c565b7fffffffff0000000000000000000000000000000000000000000000000000000016146120f7576040517f1e048e1d00000000000000000000000000000000000000000000000000000000815260040160405180910390fd5b896020015173ffffffffffffffffffffffffffffffffffffffff168a6000015173ffffffffffffffffffffffffffffffffffffffff16867f3fd553db44f207b1f41348cfc4d251860814af9eadc470e8e7895e4d120511f48d604001518e606001518f6080015160405161219e9392919062ffffff93909316835260029190910b602083015273ffffffffffffffffffffffffffffffffffffffff16604082015260600190565b60405180910390a45050505050949350505050565b60006121bd613000565b60006121c96007613071565b90503373ffffffffffffffffffffffffffffffffffffffff821614612232576040517f4f4b04cc00000000000000000000000000000000000000000000000000000000815273ffffffffffffffffffffffffffffffffffffffff82166004820152602401610f6a565b73ffffffffffffffffffffffffffffffffffffffff83166000818152600960205260409020549061226290614225565b73ffffffffffffffffffffffffffffffffffffffff85166000908152600960205260409020819055612295908290618313565b92506122ad846122a4856130d0565b610f80906187a5565b5050919050565b606061232860073381546fffffffffffffffffffffffffffffffff9081167f760a9a962ae3d184e99c0483cf5684fb3170f47116ca4f445c50209da4f4f90681019290925582547fffffffffffffffffffffffffffffffff0000000000000000000000000000000016600190920116179055565b6040517fab6291fe000000000000000000000000000000000000000000000000000000008152339063ab6291fe9061236690869086906004016187e3565b6000604051808303816000875af1158015612385573d6000803e3d6000fd5b505050506040513d6000823e601f3d9081017fffffffffffffffffffffffffffffffffffffffffffffffffffffffffffffffe01682016040526123cb91908101906187f7565b6007549091506fffffffffffffffffffffffffffffffff166001036124545760075470010000000000000000000000000000000090046fffffffffffffffffffffffffffffffff161561244a576040517f5212cba100000000000000000000000000000000000000000000000000000000815260040160405180910390fd5b6000600755610d22565b600780547fffffffffffffffffffffffffffffffff0000000000000000000000000000000081166fffffffffffffffffffffffffffffffff9182167fffffffffffffffffffffffffffffffffffffffffffffffffffffffffffffffff01909116179055610d22565b6000805473ffffffffffffffffffffffffffffffffffffffff1633148015906124fd575060035473ffffffffffffffffffffffffffffffffffffffff163314155b15612534576040517f48f5c3ed00000000000000000000000000000000000000000000000000000000815260040160405180910390fd5b81156125405781612567565b73ffffffffffffffffffffffffffffffffffffffff83166000908152600160205260409020545b73ffffffffffffffffffffffffffffffffffffffff84166000908152600160205260408120805492935083929091906125a1908490618313565b909155506125c8905073ffffffffffffffffffffffffffffffffffffffff8416858361323f565b9392505050565b6125da3383836142d7565b5050565b6000806125ea83613eeb565b9150915060006125f9846135fb565b6000818152600a602052604090209091506126159084846143bf565b6040805160ff80861682528416602082015282917f7f755ba49aaf4c878728e1cd51f7b56f649f123b45e0d9346ab32fe3cbdd148391016114ae565b600033301461268c576040517f53fa5ae400000000000000000000000000000000000000000000000000000000815260040160405180910390fd5b60005b868110156126df576126d76126b98989848181106126af576126af618490565b9050602002013590565b8787848181106126cb576126cb618490565b9050602002013561449e565b60010161268f565b507fbc197c81000000000000000000000000000000000000000000000000000000009998505050505050505050565b612716613000565b60006127226007613071565b90503373ffffffffffffffffffffffffffffffffffffffff82161461278b576040517f4f4b04cc00000000000000000000000000000000000000000000000000000000815273ffffffffffffffffffffffffffffffffffffffff82166004820152602401610f6a565b61279884610f80846130d0565b610fe18373ffffffffffffffffffffffffffffffffffffffff861684604051806020016040528060008152506144cc565b6000610d22827f760a9a962ae3d184e99c0483cf5684fb3170f47116ca4f445c50209da4f4f906015490565b60003382156128045782612838565b73ffffffffffffffffffffffffffffffffffffffff8082166000908152600260209081526040808320938816835292905220545b915073ffffffffffffffffffffffffffffffffffffffff85161561285c578461285e565b805b73ffffffffffffffffffffffffffffffffffffffff80831660009081526002602090815260408083209389168352929052908120805492975084929091906128a7908490618313565b909155506116c4905073ffffffffffffffffffffffffffffffffffffffff8516868461323f565b6000333014612909576040517f53fa5ae400000000000000000000000000000000000000000000000000000000815260040160405180910390fd5b612913858561449e565b507ff23a6e61000000000000000000000000000000000000000000000000000000009695505050505050565b3373ffffffffffffffffffffffffffffffffffffffff86168114801590612999575073ffffffffffffffffffffffffffffffffffffffff80871660009081526005602090815260408083209385168352929052205460ff16155b156129f0576040517fe237d92200000000000000000000000000000000000000000000000000000000815273ffffffffffffffffffffffffffffffffffffffff808316600483015287166024820152604401610f6a565b611644868686868661454f565b6000612a07613000565b6000612a136007613071565b90503373ffffffffffffffffffffffffffffffffffffffff821614612a7c576040517f4f4b04cc00000000000000000000000000000000000000000000000000000000815273ffffffffffffffffffffffffffffffffffffffff82166004820152602401610f6a565b60808601517308000000000000000000000000000000000000001615612b985760808601516040517f575e24b4000000000000000000000000000000000000000000000000000000008082529173ffffffffffffffffffffffffffffffffffffffff169063575e24b490612afc9033908b908b908b908b90600401618865565b6020604051808303816000875af1158015612b1b573d6000803e3d6000fd5b505050506040513d601f19601f82011682018060405250810190612b3f919061845c565b7fffffffff000000000000000000000000000000000000000000000000000000001614612b98576040517f1e048e1d00000000000000000000000000000000000000000000000000000000815260040160405180910390fd5b6040860151600090628000001615612c7a57866080015173ffffffffffffffffffffffffffffffffffffffff16632ab7a3e233898989896040518663ffffffff1660e01b8152600401612bef959493929190618865565b6020604051808303816000875af1158015612c0e573d6000803e3d6000fd5b505050506040513d601f19601f82011682018060405250810190612c329190618918565b9050620f42408162ffffff1610612c75576040517ffc5bee1200000000000000000000000000000000000000000000000000000000815260040160405180910390fd5b612c86565b506040860151620fffff165b6040805160c081018252600080825260208201819052918101829052606081018290526080810182905260a0810182905281906000612cc48b6135fb565b9050612d416040518060a001604052808762ffffff1681526020018d6060015160020b81526020018c60000151151581526020018c6020015181526020018c6040015173ffffffffffffffffffffffffffffffffffffffff16815250600a600084815260200190815260200160002061462a90919063ffffffff16565b92995090955093509150612d558b8861346e565b8315612da45783600160008c60000151612d73578d60200151612d76565b8d515b73ffffffffffffffffffffffffffffffffffffffff1681526020810191909152604001600020805490910190555b8215612e175760808b015173ffffffffffffffffffffffffffffffffffffffff1660009081526002602052604081208b51859290612de6578d60200151612de9565b8d515b73ffffffffffffffffffffffffffffffffffffffff1681526020810191909152604001600020805490910190555b60808b01517304000000000000000000000000000000000000001615612f415763b47b2fb160e01b7bffffffffffffffffffffffffffffffffffffffffffffffffffffffff19168b6080015173ffffffffffffffffffffffffffffffffffffffff1663b47b2fb1338e8e8c8f8f6040518763ffffffff1660e01b8152600401612ea596959493929190618935565b6020604051808303816000875af1158015612ec4573d6000803e3d6000fd5b505050506040513d601f19601f82011682018060405250810190612ee8919061845c565b7fffffffff000000000000000000000000000000000000000000000000000000001614612f41576040517f1e048e1d00000000000000000000000000000000000000000000000000000000815260040160405180910390fd5b33817f40e9cecb9f5f1f1c5b9c97dec2917b7ee92e57ba5563708daca94dd84ad7112f612f6e8a60801c90565b8a60408088015160a089015160608a01519251612fea959493908e90600f96870b81529490950b602085015273ffffffffffffffffffffffffffffffffffffffff9290921660408401526fffffffffffffffffffffffffffffffff16606083015260020b608082015262ffffff9190911660a082015260c00190565b60405180910390a3505050505050949350505050565b3073ffffffffffffffffffffffffffffffffffffffff7f0000000000000000000000000000000000000000000000000000000000000000161461306f576040517f0d89438e00000000000000000000000000000000000000000000000000000000815260040160405180910390fd5b565b8054600090610d2290613098906001906fffffffffffffffffffffffffffffffff166189e8565b6fffffffffffffffffffffffffffffffff167f760a9a962ae3d184e99c0483cf5684fb3170f47116ca4f445c50209da4f4f906015490565b60006f7fffffffffffffffffffffffffffffff8211156130ef57600080fd5b5090565b80600f0b600003613102575050565b600061310e6007613071565b73ffffffffffffffffffffffffffffffffffffffff8082166000908152600860209081526040808320938816835292905290812054919250613154600f85900b83618a18565b9050806000036131be57600780547fffffffffffffffffffffffffffffffffffffffffffffffffffffffffffffffff6fffffffffffffffffffffffffffffffff70010000000000000000000000000000000080840482169290920181169091029116179055613203565b81600003613203576007805460016fffffffffffffffffffffffffffffffff700100000000000000000000000000000000808404821692909201811690910291161790555b73ffffffffffffffffffffffffffffffffffffffff92831660009081526008602090815260408083209790951682529590955291909320555050565b600073ffffffffffffffffffffffffffffffffffffffff84166132a45760008060008085875af190508061329f576040517ff4b3b1bc00000000000000000000000000000000000000000000000000000000815260040160405180910390fd5b610fe1565b6040517fa9059cbb000000000000000000000000000000000000000000000000000000006000528360045282602452602060006044600080895af13d15601f3d1160016000511416171691506000606052806040525080610fe1576040517ff27f64e400000000000000000000000000000000000000000000000000000000815260040160405180910390fd5b6000600a6000613340846135fb565b81526020019081526020016000209050919050565b60038301546000906fffffffffffffffffffffffffffffffff1681036133a7576040517fa74f97ab00000000000000000000000000000000000000000000000000000000815260040160405180910390fd5b6133d86133b3846130d0565b6133bc846130d0565b6fffffffffffffffffffffffffffffffff1660809190911b1790565b90508215613421576003840154613415908490700100000000000000000000000000000000906fffffffffffffffffffffffffffffffff16615275565b60018501805490910190555b81156125c857600384015461345c908390700100000000000000000000000000000000906fffffffffffffffffffffffffffffffff16615275565b60028501805490910190559392505050565b815161347e90610f808360801c90565b6125da8260200151610f808390565b600354600090819073ffffffffffffffffffffffffffffffffffffffff16156135f6577f00000000000000000000000000000000000000000000000000000000000000005a101561350a576040517f1ee4970200000000000000000000000000000000000000000000000000000000815260040160405180910390fd5b6003546040517fd6ec458500000000000000000000000000000000000000000000000000000000815273ffffffffffffffffffffffffffffffffffffffff9091169063d6ec4585907f000000000000000000000000000000000000000000000000000000000000000090613582908790600401618a40565b60408051808303818786fa935050505080156135d9575060408051601f3d9081017fffffffffffffffffffffffffffffffffffffffffffffffffffffffffffffffe01682019092526135d691810190618aae565b60015b156135e45790925090505b6135ed82615335565b6135f681615335565b915091565b60008160405160200161360e9190618a40565b604051602081830303815290604052805190602001209050919050565b825473ffffffffffffffffffffffffffffffffffffffff1660000361367c576040517f486aa30700000000000000000000000000000000000000000000000000000000815260040160405180910390fd5b82547fffffffffffffff0000ffffffffffffffffffffffffffffffffffffffffffffff167701000000000000000000000000000000000000000000000060ff938416027fffffffffffffff00ffffffffffffffffffffffffffffffffffffffffffffffff161778010000000000000000000000000000000000000000000000009190921602179055565b73ffffffffffffffffffffffffffffffffffffffff8416613756576040517f57f447ce00000000000000000000000000000000000000000000000000000000815260006004820152602401610f6a565b73ffffffffffffffffffffffffffffffffffffffff85166137a6576040517f01a8351400000000000000000000000000000000000000000000000000000000815260006004820152602401610f6a565b6137b385858585856153c2565b5050505050565b80600f81900b81146137cb57600080fd5b919050565b60006137fd6040518060800160405280600081526020016000815260200160008152602001600081525090565b835473ffffffffffffffffffffffffffffffffffffffff1660000361384e576040517f486aa30700000000000000000000000000000000000000000000000000000000815260040160405180910390fd5b61386083602001518460400151615422565b6040805160c081018252600080825260208201819052918101829052606081018290526080810182905260a0810182905281906060860151600f0b15613a4b576138b587876020015188606001516000615541565b6fffffffffffffffffffffffffffffffff16602083015215158152604086015160608701516138e79189916001615541565b6fffffffffffffffffffffffffffffffff1660608084019190915290151560408301528601516000600f9190910b1315613a0a57600061392a876080015161563e565b9050806fffffffffffffffffffffffffffffffff1682602001516fffffffffffffffffffffffffffffffff16111561399a5760208701516040517fb8e3c38500000000000000000000000000000000000000000000000000000000815260029190910b6004820152602401610f6a565b806fffffffffffffffffffffffffffffffff1682606001516fffffffffffffffffffffffffffffffff161115613a085760408088015190517fb8e3c38500000000000000000000000000000000000000000000000000000000815260029190910b6004820152602401610f6a565b505b805115613a295760208601516080870151613a299160058a0191615675565b806040015115613a4b5760408601516080870151613a4b9160058a0191615675565b613a5e878760200151886040015161572d565b60a0830181905260808301829052606088810151895160208b8101516040808e015181519490961b7fffffffffffffffffffffffffffffffffffffffff000000000000000000000000168484015260e891821b603485015294901b60378301528351601a818403018152603a9092018452815191810191909120600090815260068d0190915291909120613af39390926157f5565b809350819450505060008660600151600f0b1215613b7057805115613b3f57613b3f878760200151600290810b6000908152600490920160205260408220828155600181018390550155565b806040015115613b7057604080870151600290810b600090815260048a016020529182208281556001810183905501555b506060850151600f0b15613d7c5760208501518654600291820b7401000000000000000000000000000000000000000090910490910b1215613bf457613bed84613be8613be2613bdd613bc68a60200151615996565b613bd38b60400151615996565b8b60600151615cfd565b6137ba565b60801b90565b615d3c565b9350613d7c565b60408501518654600291820b7401000000000000000000000000000000000000000090910490910b1215613d465785546040860151613c93918691613be891613c5b91613bdd9173ffffffffffffffffffffffffffffffffffffffff1690613bd390615996565b6133bc613bdd613c6e8b60200151615996565b8c5460608d015173ffffffffffffffffffffffffffffffffffffffff90911690615d66565b935060008560600151600f0b12613ccf5760608501516003870154613cca91906fffffffffffffffffffffffffffffffff16618ad8565b613cfe565b8460600151613cdd906187a5565b6003870154613cfe91906fffffffffffffffffffffffffffffffff166189e8565b6003870180547fffffffffffffffffffffffffffffffff00000000000000000000000000000000166fffffffffffffffffffffffffffffffff92909216919091179055613d7c565b613d7984613be860006133bc613bdd613d628b60200151615996565b613d6f8c60400151615996565b8c60600151615d66565b93505b60008560600151600f0b128015613db4575085547a010000000000000000000000000000000000000000000000000000900460ff1615155b15613e1757613dc38685615d95565b9250613e1484613be8613dd986600001516130d0565b613de687604001516130d0565b613df09190618b01565b613dfd87602001516130d0565b613e0a88606001516130d0565b6133bc9190618b01565b93505b613e3584613e30613e27856130d0565b6133bc856130d0565b615fb7565b935050509250929050565b600073ffffffffffffffffffffffffffffffffffffffff831615613ec2577301000000000000000000000000000000000000008373ffffffffffffffffffffffffffffffffffffffff16101580613e9b575062800000821615155b80613eaa575062400000821615155b80613ebd575062200000821615156125c8565b6125c8565b628000008216158015613ed85750624000008216155b80156125c8575050622000001615919050565b60408101516000908190624000001615613f8057826080015173ffffffffffffffffffffffffffffffffffffffff16630f485773846040518263ffffffff1660e01b8152600401613f3c9190618a40565b602060405180830381865afa158015613f59573d6000803e3d6000fd5b505050506040513d601f19601f82011682018060405250810190613f7d9190618b4f565b91505b60408301516220000016156135f657826080015173ffffffffffffffffffffffffffffffffffffffff166339dfff16846040518263ffffffff1660e01b8152600401613fcc9190618a40565b602060405180830381865afa158015613fe9573d6000803e3d6000fd5b505050506040513d601f19601f8201168201806040525081019061400d9190618b4f565b9050915091565b855460009073ffffffffffffffffffffffffffffffffffffffff1615614066576040517f7983c05100000000000000000000000000000000000000000000000000000000815260040160405180910390fd5b61406f86615fe4565b6040805160c08101825273ffffffffffffffffffffffffffffffffffffffff98909816808952600283900b60208a015260ff97881691890182905294871660608901819052958716608089018190529390961660a090970187905287547fffffffffffffffffff0000000000000000000000000000000000000000000000169093177401000000000000000000000000000000000000000062ffffff851602177fffffffffffffff0000ffffffffffffffffffffffffffffffffffffffffffffff16770100000000000000000000000000000000000000000000009095027fffffffffffffff00ffffffffffffffffffffffffffffffffffffffffffffffff16949094177801000000000000000000000000000000000000000000000000909302929092177fffffffffff0000ffffffffffffffffffffffffffffffffffffffffffffffffff167901000000000000000000000000000000000000000000000000009092027fffffffffff00ffffffffffffffffffffffffffffffffffffffffffffffffffff16919091177a01000000000000000000000000000000000000000000000000000090930292909217909255919050565b600073ffffffffffffffffffffffffffffffffffffffff8216614249575047919050565b6040517f70a0823100000000000000000000000000000000000000000000000000000000815230600482015273ffffffffffffffffffffffffffffffffffffffff8316906370a0823190602401602060405180830381865afa1580156142b3573d6000803e3d6000fd5b505050506040513d601f19601f82011682018060405250810190610d229190618b6a565b73ffffffffffffffffffffffffffffffffffffffff8216614327576040517fced3e10000000000000000000000000000000000000000000000000000000000815260006004820152602401610f6a565b73ffffffffffffffffffffffffffffffffffffffff83811660008181526005602090815260408083209487168084529482529182902080547fffffffffffffffffffffffffffffffffffffffffffffffffffffffffffffff001686151590811790915591519182527f17307eab39ab6107e8899845ad3d59bd9653f200f220920489ca2b5937696c31910160405180910390a3505050565b825473ffffffffffffffffffffffffffffffffffffffff16600003614410576040517f486aa30700000000000000000000000000000000000000000000000000000000815260040160405180910390fd5b82547fffffffffff0000ffffffffffffffffffffffffffffffffffffffffffffffffff1679010000000000000000000000000000000000000000000000000060ff938416027fffffffffff00ffffffffffffffffffffffffffffffffffffffffffffffffffff16177a0100000000000000000000000000000000000000000000000000009190921602179055565b6144bf3073ffffffffffffffffffffffffffffffffffffffff84168361637a565b6125da826122a4836130d0565b73ffffffffffffffffffffffffffffffffffffffff841661451c576040517f57f447ce00000000000000000000000000000000000000000000000000000000815260006004820152602401610f6a565b604080516001808252602082018690528183019081526060820185905260808201909252906116446000878484876153c2565b73ffffffffffffffffffffffffffffffffffffffff841661459f576040517f57f447ce00000000000000000000000000000000000000000000000000000000815260006004820152602401610f6a565b73ffffffffffffffffffffffffffffffffffffffff85166145ef576040517f01a8351400000000000000000000000000000000000000000000000000000000815260006004820152602401610f6a565b6040805160018082526020820186905281830190815260608201859052608082019092529061462187878484876153c2565b50505050505050565b6040805160c081018252600080825260208201819052918101829052606081018290526080810182905260a0810182905281908190846060015160000361469d576040517fbe8b850700000000000000000000000000000000000000000000000000000000815260040160405180910390fd5b6040805160c081018252875473ffffffffffffffffffffffffffffffffffffffff811680835274010000000000000000000000000000000000000000820460020b602084015260ff77010000000000000000000000000000000000000000000000830481169484019490945278010000000000000000000000000000000000000000000000008204841660608401527901000000000000000000000000000000000000000000000000008204841660808401527a01000000000000000000000000000000000000000000000000000090910490921660a0820152906000036147b1576040517f486aa30700000000000000000000000000000000000000000000000000000000815260040160405180910390fd5b8560400151156148e057806000015173ffffffffffffffffffffffffffffffffffffffff16866080015173ffffffffffffffffffffffffffffffffffffffff161061484f57805160808701516040517f7c9c6e8f00000000000000000000000000000000000000000000000000000000815273ffffffffffffffffffffffffffffffffffffffff928316600482015291166024820152604401610f6a565b6401000276a373ffffffffffffffffffffffffffffffffffffffff16866080015173ffffffffffffffffffffffffffffffffffffffff16116148db5760808601516040517f9e4d7cc700000000000000000000000000000000000000000000000000000000815273ffffffffffffffffffffffffffffffffffffffff9091166004820152602401610f6a565b614a0f565b806000015173ffffffffffffffffffffffffffffffffffffffff16866080015173ffffffffffffffffffffffffffffffffffffffff161161497457805160808701516040517f7c9c6e8f00000000000000000000000000000000000000000000000000000000815273ffffffffffffffffffffffffffffffffffffffff928316600482015291166024820152604401610f6a565b73fffd8963efd1fc6a506488495d951d5263988d2673ffffffffffffffffffffffffffffffffffffffff16866080015173ffffffffffffffffffffffffffffffffffffffff1610614a0f5760808601516040517f9e4d7cc700000000000000000000000000000000000000000000000000000000815273ffffffffffffffffffffffffffffffffffffffff9091166004820152602401610f6a565b6040805160608101825260038901546fffffffffffffffffffffffffffffffff16815290870151600091906020820190614a54576004846040015160ff16901c614a65565b60108460400151614a659190618bb2565b60ff1681526020018860400151614a87576004846080015160ff16901c614a98565b60108460800151614a989190618bb2565b60ff16815250905060008088606001511390506040518060c001604052808960600151815260200160008152602001846000015173ffffffffffffffffffffffffffffffffffffffff168152602001846020015160020b81526020018960400151614b07578a60020154614b0d565b8a600101545b815283516fffffffffffffffffffffffffffffffff166020918201526040805160e0810182526000808252928101839052908101829052606081018290526080810182905260a0810182905260c08101919091529094505b845115801590614ba95750886080015173ffffffffffffffffffffffffffffffffffffffff16856040015173ffffffffffffffffffffffffffffffffffffffff1614155b156150ee5760408086015173ffffffffffffffffffffffffffffffffffffffff168252606086015160208b0151918b0151614be99260058e019291616409565b1515604083015260020b602082018190527ffffffffffffffffffffffffffffffffffffffffffffffffffffffffffff276181315614c4c577ffffffffffffffffffffffffffffffffffffffffffffffffffffffffffff276186020820152614cb8565b614c757ffffffffffffffffffffffffffffffffffffffffffffffffffffffffffff27618618bd4565b60020b816020015160020b1315614cb857614caf7ffffffffffffffffffffffffffffffffffffffffffffffffffffffffffff27618618bd4565b60020b60208201525b614cc58160200151615996565b73ffffffffffffffffffffffffffffffffffffffff166060820152604080860151908a0151614d899190614d2f578a6080015173ffffffffffffffffffffffffffffffffffffffff16836060015173ffffffffffffffffffffffffffffffffffffffff1611614d67565b8a6080015173ffffffffffffffffffffffffffffffffffffffff16836060015173ffffffffffffffffffffffffffffffffffffffff16105b614d75578260600151614d7b565b8a608001515b60a088015188518d516165a5565b60c085015260a0840152608083015273ffffffffffffffffffffffffffffffffffffffff1660408601528115614df857614dcc8160c001518260800151016167cb565b855103855260a0810151614ddf906167cb565b8560200151614dee9190618c09565b6020860152614e3b565b614e058160a001516167cb565b855101855260c08101516080820151614e2691614e2191618c29565b6167cb565b8560200151614e359190618a18565b60208601525b602083015160ff1615614e73576000836020015160ff168260c00151614e619190618c3c565b60c08301805182900390529790970196505b604083015160ff1615614eab576000836040015160ff168260c00151614e999190618c3c565b60c08301805182900390529690960195505b60a08501516fffffffffffffffffffffffffffffffff1615614f0957614efd8160c001517001000000000000000000000000000000008760a001516fffffffffffffffffffffffffffffffff16615275565b60808601805190910190525b806060015173ffffffffffffffffffffffffffffffffffffffff16856040015173ffffffffffffffffffffffffffffffffffffffff16036150a1578060400151156150785760006150178b83602001518c60400151614f6c578d60010154614f72565b88608001515b8d60400151614fc9578960800151600292830b6000908152600490940160205260409093206001810180549092039091559081018054909203909155547001000000000000000000000000000000009004600f0b90565b8e60020154600292830b6000908152600490940160205260409093206001810180549092039091559081018054909203909155547001000000000000000000000000000000009004600f0b90565b9050896040015115615027576000035b600081600f0b1261504757808660a001516150429190618ad8565b61505f565b615050816187a5565b8660a0015161505f91906189e8565b6fffffffffffffffffffffffffffffffff1660a0870152505b886040015161508b578060200151615094565b60018160200151035b60020b6060860152614b65565b806000015173ffffffffffffffffffffffffffffffffffffffff16856040015173ffffffffffffffffffffffffffffffffffffffff16146150e9576150948560400151615fe4565b614b65565b604085015160608601518b547fffffffffffffffffff0000000000000000000000000000000000000000000000167401000000000000000000000000000000000000000062ffffff909216919091027fffffffffffffffffffffffff0000000000000000000000000000000000000000161773ffffffffffffffffffffffffffffffffffffffff909116178a5560a085015183516fffffffffffffffffffffffffffffffff9182169116146151e55760a085015160038b0180547fffffffffffffffffffffffffffffffff00000000000000000000000000000000166fffffffffffffffffffffffffffffffff9092169190911790555b8860400151156151fe57608085015160018b0155615209565b608085015160028b01555b81151589604001511515036152425761523b61522e86600001518b60600151036137ba565b6133bc87602001516137ba565b9750615268565b61526561525286602001516137ba565b6133bc87600001518c60600151036137ba565b97505b5050505092959194509250565b6000838302817fffffffffffffffffffffffffffffffffffffffffffffffffffffffffffffffff858709828110838203039150508084116152b557600080fd5b806000036152c8575082900490506125c8565b6000848688096000868103871696879004966002600389028118808a02820302808a02820302808a02820302808a02820302808a02820302808a02909103029181900381900460010186841190950394909402919094039290920491909117919091029150509392505050565b60ff8116156153bf57600061534b601083618bb2565b9050600f600483901c1660ff82161580159061536a5750600460ff8316105b80615385575060ff8116158015906153855750600460ff8216105b156153bc576040517ffc5bee1200000000000000000000000000000000000000000000000000000000815260040160405180910390fd5b50505b50565b6153ce858585856167fa565b73ffffffffffffffffffffffffffffffffffffffff8416156137b35782513390600103615414576020848101519084015161540d838989858589616aeb565b5050611644565b611644818787878787616cdd565b8060020b8260020b1261546f576040517fc4433ed5000000000000000000000000000000000000000000000000000000008152600283810b600483015282900b6024820152604401610f6a565b7ffffffffffffffffffffffffffffffffffffffffffffffffffffffffffff27618600283900b12156154d3576040517fd5e2f7ab000000000000000000000000000000000000000000000000000000008152600283900b6004820152602401610f6a565b6154fc7ffffffffffffffffffffffffffffffffffffffffffffffffffffffffffff27618618bd4565b60020b8160020b13156125da576040517f1ad777f8000000000000000000000000000000000000000000000000000000008152600282900b6004820152602401610f6a565b600283900b6000908152600485016020526040812080548291906fffffffffffffffffffffffffffffffff81169060801c600f87900b841361558c576155878783618ad8565b61559f565b615595876187a5565b61559f90836189e8565b6fffffffffffffffffffffffffffffffff80821615908416801591909114159650909450600003615607578854740100000000000000000000000000000000000000009004600290810b9089900b13615607576001808a0154908401556002808a0154908401555b60008661561d576156188883618b01565b615627565b6156278883618c50565b90508060801b851784555050505094509492505050565b6000621b13d08201600290810b9083900b6fffffffffffffffffffffffffffffffff028161566e5761566e618b83565b0492915050565b8060020b8260020b8161568a5761568a618b83565b0760020b156156d3576040517fd4d8f3e6000000000000000000000000000000000000000000000000000000008152600283810b600483015282900b6024820152604401610f6a565b6000806157018360020b8560020b816156ee576156ee618b83565b0560020b600881901d9161010090910790565b600191820b60009081526020979097526040909620805460ff9097169190911b90951890945550505050565b600282810b600081815260048601602052604080822085850b83529082208754929485949293919274010000000000000000000000000000000000000000909204900b908112156157975781600101548360010154039450816002015483600201540393506157ea565b8560020b8160020b126157c35782600101548260010154039450826002015482600201540393506157ea565b81600101548360010154896001015403039450816002015483600201548960020154030393505b505050935093915050565b6040805160608101825285546fffffffffffffffffffffffffffffffff16815260018601546020820152600286015491810191909152600090819081600f87900b81036158915781516fffffffffffffffffffffffffffffffff16600003615889576040517faefeb92400000000000000000000000000000000000000000000000000000000815260040160405180910390fd5b5080516158c6565b600087600f0b126158ae5781516158a9908890618ad8565b6158c3565b6158b7876187a5565b82516158c391906189e8565b90505b6158fe8260200151870383600001516fffffffffffffffffffffffffffffffff16700100000000000000000000000000000000615275565b93506159388260400151860383600001516fffffffffffffffffffffffffffffffff16700100000000000000000000000000000000615275565b925086600f0b6000146159805787547fffffffffffffffffffffffffffffffff00000000000000000000000000000000166fffffffffffffffffffffffffffffffff82161788555b5050600186019390935560029094015591929050565b60008060008360020b126159ad578260020b6159b5565b8260020b6000035b9050620d89e88111156159f4576040517fce8ef7fc00000000000000000000000000000000000000000000000000000000815260040160405180910390fd5b600081600116600003615a1857700100000000000000000000000000000000615a2a565b6ffffcb933bd6fad37aa2d162d1a5940015b70ffffffffffffffffffffffffffffffffff1690506002821615615a5e576ffff97272373d413259a46990580e213a0260801c5b6004821615615a7d576ffff2e50f5f656932ef12357cf3c7fdcc0260801c5b6008821615615a9c576fffe5caca7e10e4e61c3624eaa0941cd00260801c5b6010821615615abb576fffcb9843d60f6159c9db58835c9266440260801c5b6020821615615ada576fff973b41fa98c081472e6896dfb254c00260801c5b6040821615615af9576fff2ea16466c96a3843ec78b326b528610260801c5b6080821615615b18576ffe5dee046a99a2a811c461f1969c30530260801c5b610100821615615b38576ffcbe86c7900a88aedcffc83b479aa3a40260801c5b610200821615615b58576ff987a7253ac413176f2b074cf7815e540260801c5b610400821615615b78576ff3392b0822b70005940c7a398e4b70f30260801c5b610800821615615b98576fe7159475a2c29b7443b29c7fa6e889d90260801c5b611000821615615bb8576fd097f3bdfd2022b8845ad8f792aa58250260801c5b612000821615615bd8576fa9f746462d870fdf8a65dc1f90e061e50260801c5b614000821615615bf8576f70d869a156d2a1b890bb3df62baf32f70260801c5b618000821615615c18576f31be135f97d08fd981231505542fcfa60260801c5b62010000821615615c39576f09aa508b5b7a84e1c677de54f3e99bc90260801c5b62020000821615615c59576e5d6af8dedb81196699c329225ee6040260801c5b62040000821615615c78576d2216e584f5fa1ea926041bedfe980260801c5b62080000821615615c95576b048a170391f7dc42444e8fa20260801c5b60008460020b1315615cd457807fffffffffffffffffffffffffffffffffffffffffffffffffffffffffffffffff81615cd057615cd0618b83565b0490505b640100000000810615615ce8576001615ceb565b60005b60ff16602082901c0192505050919050565b60008082600f0b12615d1e57615d19614e218585856001616e6e565b610ee9565b615d31614e218585856000036000616e6e565b600003949350505050565b60006125c8615d4b8360801c90565b615d558560801c90565b615d5f9190618b01565b8385613e0a565b60008082600f0b12615d8257615d19614e218585856001616f92565b615d31614e218585856000036000616f92565b615dc06040518060800160405280600081526020016000815260200160008152602001600081525090565b6000615dcc8360801c90565b84549091508390600090615e03906010907a010000000000000000000000000000000000000000000000000000900460ff16618bb2565b8654909150600f7a010000000000000000000000000000000000000000000000000000820460041c1690600090615e5b906010907801000000000000000000000000000000000000000000000000900460ff16618bb2565b8854909150600f780100000000000000000000000000000000000000000000000090910460041c81169060009087900b128015615e9b575060008460ff16115b15615ecf5760ff8416615ead876187a5565b615eb79190618c9e565b6fffffffffffffffffffffffffffffffff1660408801525b600085600f0b128015615ee5575060008360ff16115b15615f195760ff8316615ef7866187a5565b615f019190618c9e565b6fffffffffffffffffffffffffffffffff1660608801525b60008260ff16118015615f30575060008760400151115b15615f60578160ff168760400151615f489190618c3c565b808852604088018051615f5c908390618313565b9052505b60008160ff16118015615f77575060008760600151115b15615fab578060ff168760600151615f8f9190618c3c565b60208801819052606088018051615fa7908390618313565b9052505b50505050505092915050565b60006125c8615fc68360801c90565b615fd08560801c90565b615fda9190618c50565b6133bc8486618c50565b60006401000276a373ffffffffffffffffffffffffffffffffffffffff83161080616039575073fffd8963efd1fc6a506488495d951d5263988d2673ffffffffffffffffffffffffffffffffffffffff831610155b15616070576040517f02ad01b600000000000000000000000000000000000000000000000000000000815260040160405180910390fd5b77ffffffffffffffffffffffffffffffffffffffff00000000602083901b166fffffffffffffffffffffffffffffffff811160071b81811c67ffffffffffffffff811160061b90811c63ffffffff811160051b90811c61ffff811160041b90811c60ff8111600390811b91821c600f811160021b90811c918211600190811b92831c9790881196179094179092171790911717176080811061611a57607f810383901c9150616124565b80607f0383901b91505b908002607f81811c60ff83811c9190911c800280831c81831c1c800280841c81841c1c800280851c81851c1c800280861c81861c1c800280871c81871c1c800280881c81881c1c800280891c81891c1c8002808a1c818a1c1c8002808b1c818b1c1c8002808c1c818c1c1c8002808d1c818d1c1c8002808e1c9c81901c9c909c1c80029c8d901c9e9d7fffffffffffffffffffffffffffffffffffffffffffffffffffffffffffffff808f0160401b60c09190911c678000000000000000161760c19b909b1c674000000000000000169a909a1760c29990991c672000000000000000169890981760c39790971c671000000000000000169690961760c49590951c670800000000000000169490941760c59390931c670400000000000000169290921760c69190911c670200000000000000161760c79190911c670100000000000000161760c89190911c6680000000000000161760c99190911c6640000000000000161760ca9190911c6620000000000000161760cb9190911c6610000000000000161760cc9190911c6608000000000000161760cd9190911c66040000000000001617693627a301d71055774c8581027ffffffffffffffffffffffffffffffffffd709b7e5480fba5a50fed5e62ffc5568101608090811d906fdb2df09e81959a81455e260799a0632f8301901d600281810b9083900b1461636b578873ffffffffffffffffffffffffffffffffffffffff1661634382615996565b73ffffffffffffffffffffffffffffffffffffffff161115616365578161636d565b8061636d565b815b9998505050505050505050565b73ffffffffffffffffffffffffffffffffffffffff83166163ca576040517f01a8351400000000000000000000000000000000000000000000000000000000815260006004820152602401610f6a565b604080516001808252602082018590528183019081526060820184905260a082019092526000608082018181529192916137b3918791859085906153c2565b60008060008460020b8660020b8161642357616423618b83565b05905060008660020b12801561645057508460020b8660020b8161644957616449618b83565b0760020b15155b15616478577fffffffffffffffffffffffffffffffffffffffffffffffffffffffffffffffff015b831561650a57600281900b600881901d600181810b600090815260208b9052604090205461010090930760ff81169190911b80017fffffffffffffffffffffffffffffffffffffffffffffffffffffffffffffffff01928316801515955091929091856164ec57888360ff168603026164ff565b886164f682617071565b840360ff168603025b96505050505061659b565b600181810160020b600881901d80830b600090815260208b9052604090205461010090920760ff81169390931b7fffffffffffffffffffffffffffffffffffffffffffffffffffffffffffffffff01199182168015159550909291908561657e57888360ff0360ff16866001010102616594565b88836165898361711e565b0360ff168660010101025b9650505050505b5094509492505050565b600080808073ffffffffffffffffffffffffffffffffffffffff808916908a1610158187128015906166375760006165eb8989620f42400362ffffff16620f4240615275565b905082616604576165ff8c8c8c6001616f92565b616611565b6166118b8d8c6001616e6e565b9550858110616622578a9650616631565b61662e8c8b8386617301565b96505b50616681565b8161664e576166498b8b8b6000616e6e565b61665b565b61665b8a8c8b6000616f92565b935083886000031061666f57899550616681565b61667e8b8a8a60000385617363565b95505b73ffffffffffffffffffffffffffffffffffffffff8a81169087161482156166f1578080156166ad5750815b6166c3576166be878d8c6001616e6e565b6166c5565b855b95508080156166d2575081155b6166e8576166e3878d8c6000616f92565b6166ea565b845b945061673b565b8080156166fb5750815b6167115761670c8c888c6001616f92565b616713565b855b9550808015616720575081155b616736576167318c888c6000616e6e565b616738565b845b94505b8115801561674b57508860000385115b15616757578860000394505b81801561679057508a73ffffffffffffffffffffffffffffffffffffffff168773ffffffffffffffffffffffffffffffffffffffff1614155b1561679f5785890393506167bc565b6167b9868962ffffff168a620f42400362ffffff166173c5565b93505b50505095509550955095915050565b60007f7fffffffffffffffffffffffffffffffffffffffffffffffffffffffffffffff8211156130ef57600080fd5b805182511461684257815181516040517f5b05999100000000000000000000000000000000000000000000000000000000815260048101929092526024820152604401610f6a565b3360005b83518110156169be5760208181028581018201519085019091015173ffffffffffffffffffffffffffffffffffffffff88161561694a57600082815260046020908152604080832073ffffffffffffffffffffffffffffffffffffffff8c16845290915290205481811015616914576040517f03dee4c500000000000000000000000000000000000000000000000000000000815273ffffffffffffffffffffffffffffffffffffffff8a166004820152602481018290526044810183905260648101849052608401610f6a565b600083815260046020908152604080832073ffffffffffffffffffffffffffffffffffffffff8d16845290915290209082900390555b73ffffffffffffffffffffffffffffffffffffffff8716156169ab57600082815260046020908152604080832073ffffffffffffffffffffffffffffffffffffffff8b168452909152812080548392906169a5908490618c29565b90915550505b5050806169b7906184bf565b9050616846565b508251600103616a6657602083015160009060208401519091508573ffffffffffffffffffffffffffffffffffffffff168773ffffffffffffffffffffffffffffffffffffffff168473ffffffffffffffffffffffffffffffffffffffff167fc3d58168c5ae7397731d063d5bbf3d657854427343f4c083240f7aacaa2d0f628585604051616a57929190918252602082015260400190565b60405180910390a450506137b3565b8373ffffffffffffffffffffffffffffffffffffffff168573ffffffffffffffffffffffffffffffffffffffff168273ffffffffffffffffffffffffffffffffffffffff167f4a39dc06d4c0dbc64b70af90fd698a233a518aa5d07e595d983b8c0526c8f7fb8686604051616adc929190618ccd565b60405180910390a45050505050565b73ffffffffffffffffffffffffffffffffffffffff84163b15611644576040517ff23a6e6100000000000000000000000000000000000000000000000000000000815273ffffffffffffffffffffffffffffffffffffffff85169063f23a6e6190616b629089908990889088908890600401618cf2565b6020604051808303816000875af1925050508015616bbb575060408051601f3d9081017fffffffffffffffffffffffffffffffffffffffffffffffffffffffffffffffe0168201909252616bb89181019061845c565b60015b616c4a573d808015616be9576040519150601f19603f3d011682016040523d82523d6000602084013e616bee565b606091505b508051600003616c42576040517f57f447ce00000000000000000000000000000000000000000000000000000000815273ffffffffffffffffffffffffffffffffffffffff86166004820152602401610f6a565b805181602001fd5b7fffffffff0000000000000000000000000000000000000000000000000000000081167ff23a6e610000000000000000000000000000000000000000000000000000000014614621576040517f57f447ce00000000000000000000000000000000000000000000000000000000815273ffffffffffffffffffffffffffffffffffffffff86166004820152602401610f6a565b73ffffffffffffffffffffffffffffffffffffffff84163b15611644576040517fbc197c8100000000000000000000000000000000000000000000000000000000815273ffffffffffffffffffffffffffffffffffffffff85169063bc197c8190616d549089908990889088908890600401618d37565b6020604051808303816000875af1925050508015616dad575060408051601f3d9081017fffffffffffffffffffffffffffffffffffffffffffffffffffffffffffffffe0168201909252616daa9181019061845c565b60015b616ddb573d808015616be9576040519150601f19603f3d011682016040523d82523d6000602084013e616bee565b7fffffffff0000000000000000000000000000000000000000000000000000000081167fbc197c810000000000000000000000000000000000000000000000000000000014614621576040517f57f447ce00000000000000000000000000000000000000000000000000000000815273ffffffffffffffffffffffffffffffffffffffff86166004820152602401610f6a565b60008373ffffffffffffffffffffffffffffffffffffffff168573ffffffffffffffffffffffffffffffffffffffff161115616ea8579293925b7bffffffffffffffffffffffffffffffff000000000000000000000000606084901b1673ffffffffffffffffffffffffffffffffffffffff8686038116908716616ef157600080fd5b83616f41578673ffffffffffffffffffffffffffffffffffffffff16616f2e83838973ffffffffffffffffffffffffffffffffffffffff16615275565b81616f3b57616f3b618b83565b04616f87565b616f87616f6583838973ffffffffffffffffffffffffffffffffffffffff166173c5565b8873ffffffffffffffffffffffffffffffffffffffff16808204910615150190565b979650505050505050565b60008373ffffffffffffffffffffffffffffffffffffffff168573ffffffffffffffffffffffffffffffffffffffff161115616fcc579293925b8161701f5761701a6fffffffffffffffffffffffffffffffff8416616ff18787618d96565b73ffffffffffffffffffffffffffffffffffffffff166c01000000000000000000000000615275565b617068565b6170686fffffffffffffffffffffffffffffffff841661703f8787618d96565b73ffffffffffffffffffffffffffffffffffffffff166c010000000000000000000000006173c5565b95945050505050565b600080821161707f57600080fd5b700100000000000000000000000000000000821061709f57608091821c91015b6801000000000000000082106170b757604091821c91015b64010000000082106170cb57602091821c91015b6201000082106170dd57601091821c91015b61010082106170ee57600891821c91015b601082106170fe57600491821c91015b6004821061710e57600291821c91015b600282106137cb57600101919050565b600080821161712c57600080fd5b5060ff6fffffffffffffffffffffffffffffffff82161561716e577fffffffffffffffffffffffffffffffffffffffffffffffffffffffffffffff8001617176565b608082901c91505b67ffffffffffffffff8216156171ad577fffffffffffffffffffffffffffffffffffffffffffffffffffffffffffffffc0016171b5565b604082901c91505b63ffffffff8216156171e8577fffffffffffffffffffffffffffffffffffffffffffffffffffffffffffffffe0016171f0565b602082901c91505b61ffff821615617221577ffffffffffffffffffffffffffffffffffffffffffffffffffffffffffffffff001617229565b601082901c91505b60ff821615617259577ffffffffffffffffffffffffffffffffffffffffffffffffffffffffffffffff801617261565b600882901c91505b600f821615617291577ffffffffffffffffffffffffffffffffffffffffffffffffffffffffffffffffc01617299565b600482901c91505b60038216156172c9577ffffffffffffffffffffffffffffffffffffffffffffffffffffffffffffffffe016172d1565b600282901c91505b60018216156137cb577fffffffffffffffffffffffffffffffffffffffffffffffffffffffffffffffff01919050565b6000808573ffffffffffffffffffffffffffffffffffffffff161161732557600080fd5b6000846fffffffffffffffffffffffffffffffff161161734457600080fd5b816173565761701a8585856001617423565b6170688585856001617581565b6000808573ffffffffffffffffffffffffffffffffffffffff161161738757600080fd5b6000846fffffffffffffffffffffffffffffffff16116173a657600080fd5b816173b85761701a8585856000617581565b6170688585856000617423565b60006173d2848484615275565b9050600082806173e4576173e4618b83565b84860911156125c8577fffffffffffffffffffffffffffffffffffffffffffffffffffffffffffffffff811061741957600080fd5b6001019392505050565b600081156174ca57600073ffffffffffffffffffffffffffffffffffffffff84111561747857617473846c01000000000000000000000000876fffffffffffffffffffffffffffffffff16615275565b617498565b6174986fffffffffffffffffffffffffffffffff8616606086901b618c3c565b90506174c26174bd8273ffffffffffffffffffffffffffffffffffffffff8916618c29565b6176c4565b915050610ee9565b600073ffffffffffffffffffffffffffffffffffffffff84111561751757617512846c01000000000000000000000000876fffffffffffffffffffffffffffffffff166173c5565b61753d565b61753d606085901b6fffffffffffffffffffffffffffffffff8716808204910615150190565b9050808673ffffffffffffffffffffffffffffffffffffffff161161756157600080fd5b6174c28173ffffffffffffffffffffffffffffffffffffffff8816618313565b600082600003617592575083610ee9565b7bffffffffffffffffffffffffffffffff000000000000000000000000606085901b16821561765d5773ffffffffffffffffffffffffffffffffffffffff8616848102908582816175e5576175e5618b83565b04036176225781810182811061762057617616838973ffffffffffffffffffffffffffffffffffffffff16836173c5565b9350505050610ee9565b505b506174c2818561764873ffffffffffffffffffffffffffffffffffffffff8a1683618c3c565b6176529190618c29565b808204910615150190565b73ffffffffffffffffffffffffffffffffffffffff86168481029085828161768757617687618b83565b0414801561769457508082115b61769d57600080fd5b8082036176166174bd8473ffffffffffffffffffffffffffffffffffffffff8b16846173c5565b8073ffffffffffffffffffffffffffffffffffffffff811681146137cb57600080fd5b73ffffffffffffffffffffffffffffffffffffffff811681146153bf57600080fd5b6000806040838503121561771c57600080fd5b8235617727816176e7565b946020939093013593505050565b7fffffffff00000000000000000000000000000000000000000000000000000000811681146153bf57600080fd5b60006020828403121561777557600080fd5b81356125c881617735565b8035600281900b81146137cb57600080fd5b600080600080608085870312156177a857600080fd5b8435935060208501356177ba816176e7565b92506177c860408601617780565b91506177d660608601617780565b905092959194509250565b6000806000606084860312156177f657600080fd5b8335617801816176e7565b92506020840135617811816176e7565b929592945050506040919091013590565b60006020828403121561783457600080fd5b5035919050565b60005b8381101561785657818101518382015260200161783e565b50506000910152565b6000815180845261787781602086016020860161783b565b601f017fffffffffffffffffffffffffffffffffffffffffffffffffffffffffffffffe0169290920160200192915050565b6020815260006125c8602083018461785f565b6000602082840312156178ce57600080fd5b81356125c8816176e7565b7f4e487b7100000000000000000000000000000000000000000000000000000000600052604160045260246000fd5b6040516060810167ffffffffffffffff8111828210171561792b5761792b6178d9565b60405290565b604051601f82017fffffffffffffffffffffffffffffffffffffffffffffffffffffffffffffffe016810167ffffffffffffffff81118282101715617978576179786178d9565b604052919050565b62ffffff811681146153bf57600080fd5b600060a082840312156179a357600080fd5b60405160a0810181811067ffffffffffffffff821117156179c6576179c66178d9565b60405290508082356179d7816176e7565b815260208301356179e7816176e7565b602082015260408301356179fa81617980565b6040820152617a0b60608401617780565b60608201526080830135617a1e816176e7565b6080919091015292915050565b60008083601f840112617a3d57600080fd5b50813567ffffffffffffffff811115617a5557600080fd5b602083019150836020828501011115617a6d57600080fd5b9250929050565b60008060008060006101008688031215617a8d57600080fd5b617a978787617991565b945060a0860135935060c0860135925060e086013567ffffffffffffffff811115617ac157600080fd5b617acd88828901617a2b565b969995985093965092949392505050565b600060a08284031215617af057600080fd5b6125c88383617991565b600067ffffffffffffffff821115617b1457617b146178d9565b5060051b60200190565b600082601f830112617b2f57600080fd5b81356020617b44617b3f83617afa565b617931565b82815260059290921b84018101918181019086841115617b6357600080fd5b8286015b84811015617b7e5780358352918301918301617b67565b509695505050505050565b600067ffffffffffffffff821115617ba357617ba36178d9565b50601f017fffffffffffffffffffffffffffffffffffffffffffffffffffffffffffffffe01660200190565b600082601f830112617be057600080fd5b8135617bee617b3f82617b89565b818152846020838601011115617c0357600080fd5b816020850160208301376000918101602001919091529392505050565b600080600080600060a08688031215617c3857600080fd5b8535617c43816176e7565b94506020860135617c53816176e7565b9350604086013567ffffffffffffffff80821115617c7057600080fd5b617c7c89838a01617b1e565b94506060880135915080821115617c9257600080fd5b617c9e89838a01617b1e565b93506080880135915080821115617cb457600080fd5b50617cc188828901617bcf565b9150509295509295909350565b60008060408385031215617ce157600080fd5b50508035926020909101359150565b60008060408385031215617d0357600080fd5b823567ffffffffffffffff80821115617d1b57600080fd5b818501915085601f830112617d2f57600080fd5b81356020617d3f617b3f83617afa565b82815260059290921b84018101918181019089841115617d5e57600080fd5b948201945b83861015617d85578535617d76816176e7565b82529482019490820190617d63565b96505086013592505080821115617d9b57600080fd5b50617da885828601617b1e565b9150509250929050565b600081518084526020808501945080840160005b83811015617de257815187529582019590820190600101617dc6565b509495945050505050565b6020815260006125c86020830184617db2565b600080600080848603610120811215617e1857600080fd5b617e228787617991565b945060607fffffffffffffffffffffffffffffffffffffffffffffffffffffffffffffff6082011215617e5457600080fd5b50617e5d617908565b617e6960a08701617780565b8152617e7760c08701617780565b602082015260e08601356040820152925061010085013567ffffffffffffffff811115617ea357600080fd5b617eaf87828801617a2b565b95989497509550505050565b60008060008060e08587031215617ed157600080fd5b617edb8686617991565b935060a0850135617eeb816176e7565b925060c085013567ffffffffffffffff811115617ea357600080fd5b60008060208385031215617f1a57600080fd5b823567ffffffffffffffff811115617f3157600080fd5b617f3d85828601617a2b565b90969095509350505050565b803580151581146137cb57600080fd5b60008060408385031215617f6c57600080fd5b8235617f77816176e7565b9150617f8560208401617f49565b90509250929050565b60008060408385031215617fa157600080fd5b8235617fac816176e7565b91506020830135617fbc816176e7565b809150509250929050565b60006101208201905073ffffffffffffffffffffffffffffffffffffffff8651168252602086015160020b602083015260ff604087015116604083015260ff606087015116606083015260ff608087015116608083015260ff60a08701511660a08301528460c08301528360e08301526170686101008301846fffffffffffffffffffffffffffffffff169052565b60008083601f84011261806857600080fd5b50813567ffffffffffffffff81111561808057600080fd5b6020830191508360208260051b8501011115617a6d57600080fd5b60008060008060008060008060a0898b0312156180b757600080fd5b88356180c2816176e7565b975060208901356180d2816176e7565b9650604089013567ffffffffffffffff808211156180ef57600080fd5b6180fb8c838d01618056565b909850965060608b013591508082111561811457600080fd5b6181208c838d01618056565b909650945060808b013591508082111561813957600080fd5b506181468b828c01617a2b565b999c989b5096995094979396929594505050565b60008060008060008060a0878903121561817357600080fd5b863561817e816176e7565b9550602087013561818e816176e7565b94506040870135935060608701359250608087013567ffffffffffffffff8111156181b857600080fd5b6181c489828a01617a2b565b979a9699509497509295939492505050565b600080600080600060a086880312156181ee57600080fd5b85356181f9816176e7565b94506020860135618209816176e7565b93506040860135925060608601359150608086013567ffffffffffffffff81111561823357600080fd5b617cc188828901617bcf565b60008060008084860361012081121561825757600080fd5b6182618787617991565b945060607fffffffffffffffffffffffffffffffffffffffffffffffffffffffffffffff608201121561829357600080fd5b5061829c617908565b6182a860a08701617f49565b815260c0860135602082015260e08601356182c2816176e7565b6040820152925061010085013567ffffffffffffffff811115617ea357600080fd5b7f4e487b7100000000000000000000000000000000000000000000000000000000600052601160045260246000fd5b81810381811115610d2257610d226182e4565b600181811c9082168061833a57607f821691505b602082108103618373577f4e487b7100000000000000000000000000000000000000000000000000000000600052602260045260246000fd5b50919050565b8183528181602085013750600060208284010152600060207fffffffffffffffffffffffffffffffffffffffffffffffffffffffffffffffe0601f840116840101905092915050565b600061012073ffffffffffffffffffffffffffffffffffffffff8916835261843c602084018973ffffffffffffffffffffffffffffffffffffffff80825116835280602083015116602084015262ffffff6040830151166040840152606082015160020b6060840152806080830151166080840152505050565b8660c08401528560e08401528061010084015261636d8184018587618379565b60006020828403121561846e57600080fd5b81516125c881617735565b8082028115828204841417610d2257610d226182e4565b7f4e487b7100000000000000000000000000000000000000000000000000000000600052603260045260246000fd5b60007fffffffffffffffffffffffffffffffffffffffffffffffffffffffffffffffff82036184f0576184f06182e4565b5060010190565b600061014073ffffffffffffffffffffffffffffffffffffffff88168352618571602084018873ffffffffffffffffffffffffffffffffffffffff80825116835280602083015116602084015262ffffff6040830151166040840152606082015160020b6060840152806080830151166080840152505050565b8551600290810b60c08501526020870151900b60e084015260408601516101008401525b806101208401526185a98184018587618379565b98975050505050505050565b600061016073ffffffffffffffffffffffffffffffffffffffff8916835261862f602084018973ffffffffffffffffffffffffffffffffffffffff80825116835280602083015116602084015262ffffff6040830151166040840152606082015160020b6060840152806080830151166080840152505050565b8651600290810b60c08501526020880151900b60e084015260408701516101008401525b856101208401528061014084015261636d8184018587618379565b600061010073ffffffffffffffffffffffffffffffffffffffff80891684526186e9602085018973ffffffffffffffffffffffffffffffffffffffff80825116835280602083015116602084015262ffffff6040830151166040840152606082015160020b6060840152806080830151166080840152505050565b861660c084015260e083018190526185a98184018587618379565b600061012073ffffffffffffffffffffffffffffffffffffffff808a16845261877f602085018a73ffffffffffffffffffffffffffffffffffffffff80825116835280602083015116602084015262ffffff6040830151166040840152606082015160020b6060840152806080830151166080840152505050565b80881660c0850152508560020b60e08401528061010084015261636d8184018587618379565b600081600f0b7fffffffffffffffffffffffffffffffff8000000000000000000000000000000081036187da576187da6182e4565b60000392915050565b602081526000610ee9602083018486618379565b60006020828403121561880957600080fd5b815167ffffffffffffffff81111561882057600080fd5b8201601f8101841361883157600080fd5b805161883f617b3f82617b89565b81815285602083850101111561885457600080fd5b61706882602083016020860161783b565b600061014073ffffffffffffffffffffffffffffffffffffffff881683526188df602084018873ffffffffffffffffffffffffffffffffffffffff80825116835280602083015116602084015262ffffff6040830151166040840152606082015160020b6060840152806080830151166080840152505050565b8551151560c0840152602086015160e0840152604086015173ffffffffffffffffffffffffffffffffffffffff16610100840152618595565b60006020828403121561892a57600080fd5b81516125c881617980565b600061016073ffffffffffffffffffffffffffffffffffffffff891683526189af602084018973ffffffffffffffffffffffffffffffffffffffff80825116835280602083015116602084015262ffffff6040830151166040840152606082015160020b6060840152806080830151166080840152505050565b8651151560c0840152602087015160e0840152604087015173ffffffffffffffffffffffffffffffffffffffff16610100840152618653565b6fffffffffffffffffffffffffffffffff828116828216039080821115618a1157618a116182e4565b5092915050565b8082018281126000831280158216821582161715618a3857618a386182e4565b505092915050565b60a08101610d22828473ffffffffffffffffffffffffffffffffffffffff80825116835280602083015116602084015262ffffff6040830151166040840152606082015160020b6060840152806080830151166080840152505050565b805160ff811681146137cb57600080fd5b60008060408385031215618ac157600080fd5b618aca83618a9d565b9150617f8560208401618a9d565b6fffffffffffffffffffffffffffffffff818116838216019080821115618a1157618a116182e4565b600f81810b9083900b016f7fffffffffffffffffffffffffffffff81137fffffffffffffffffffffffffffffffff8000000000000000000000000000000082121715610d2257610d226182e4565b600060208284031215618b6157600080fd5b6125c882618a9d565b600060208284031215618b7c57600080fd5b5051919050565b7f4e487b7100000000000000000000000000000000000000000000000000000000600052601260045260246000fd5b600060ff831680618bc557618bc5618b83565b8060ff84160691505092915050565b60008160020b7fffffffffffffffffffffffffffffffffffffffffffffffffffffffffff80000081036187da576187da6182e4565b8181036000831280158383131683831282161715618a1157618a116182e4565b80820180821115610d2257610d226182e4565b600082618c4b57618c4b618b83565b500490565b600f82810b9082900b037fffffffffffffffffffffffffffffffff8000000000000000000000000000000081126f7fffffffffffffffffffffffffffffff82131715610d2257610d226182e4565b60006fffffffffffffffffffffffffffffffff80841680618cc157618cc1618b83565b92169190910492915050565b604081526000618ce06040830185617db2565b82810360208401526170688185617db2565b600073ffffffffffffffffffffffffffffffffffffffff808816835280871660208401525084604083015283606083015260a06080830152616f8760a083018461785f565b600073ffffffffffffffffffffffffffffffffffffffff808816835280871660208401525060a06040830152618d7060a0830186617db2565b8281036060840152618d828186617db2565b905082810360808401526185a9818561785f565b73ffffffffffffffffffffffffffffffffffffffff828116828216039080821115618a1157618a116182e456fea164736f6c6343000815000a",
    "linkReferences": {}
  },
  "methodIdentifiers": {
    "MAX_TICK_SPACING()": "60460f06",
    "MIN_PROTOCOL_FEE_DENOMINATOR()": "84e41c5e",
    "MIN_TICK_SPACING()": "07eff0dd",
    "balanceOf(address,uint256)": "00fdd58e",
    "balanceOfBatch(address[],uint256[])": "4e1273f4",
    "collectHookFees(address,address,uint256)": "effd18c0",
    "collectProtocolFees(address,address,uint256)": "8161b874",
    "currencyDelta(address,address)": "a54b2831",
    "donate((address,address,uint24,int24,address),uint256,uint256,bytes)": "234266d7",
    "extsload(bytes32)": "1e2eaeaf",
    "extsload(bytes32,uint256)": "35fd631a",
    "getLiquidity(bytes32)": "fa6793d5",
    "getLiquidity(bytes32,address,int24,int24)": "33aa955b",
    "getLock(uint256)": "d68f4dd1",
    "getPosition(bytes32,address,int24,int24)": "048d9c70",
    "getSlot0(bytes32)": "c815641c",
    "hookFeesAccrued(address,address)": "b4c41939",
    "initialize((address,address,uint24,int24,address),uint160,bytes)": "695c5bf5",
    "isApprovedForAll(address,address)": "e985e9c5",
    "lock(bytes)": "81548319",
    "lockData()": "f8fcd156",
    "mint(address,address,uint256)": "c6c3bbe6",
    "modifyPosition((address,address,uint24,int24,address),(int24,int24,int256),bytes)": "61ae449a",
    "onERC1155BatchReceived(address,address,uint256[],uint256[],bytes)": "bc197c81",
    "onERC1155Received(address,address,uint256,uint256,bytes)": "f23a6e61",
    "owner()": "8da5cb5b",
    "pools(bytes32)": "b5217bb4",
    "protocolFeeController()": "f02de3b2",
    "protocolFeesAccrued(address)": "97e8cd4e",
    "reservesOf(address)": "93c85a21",
    "safeBatchTransferFrom(address,address,uint256[],uint256[],bytes)": "2eb2c2d6",
    "safeTransferFrom(address,address,uint256,uint256,bytes)": "f242432a",
    "setApprovalForAll(address,bool)": "a22cb465",
    "setHookFees((address,address,uint24,int24,address))": "af440f82",
    "setOwner(address)": "13af4035",
    "setProtocolFeeController(address)": "2d771389",
    "setProtocolFees((address,address,uint24,int24,address))": "282076cc",
    "settle(address)": "6a256b29",
    "supportsInterface(bytes4)": "01ffc9a7",
    "swap((address,address,uint24,int24,address),(bool,int256,uint160),bytes)": "f3cd914c",
    "take(address,address,uint256)": "0b0d9c09",
    "uri(uint256)": "0e89341c"
  },
  "id": 42
}